:1000000008C1000035C1000033C1000031C100004B
:100010002FC100002DC100002BC1000029C100002C
:1000200027C1000025C1000023C1000021C100003C
:100030001FC100001DC100001BC1000019C100004C
:1000400017C1000015C1000013C1000011C100005C
:100050000FC100000DC100000BC10000ECC3000087
:1000600007C10000B2C3000087C3000001C1000047
:10007000FFC00000FDC00000FBC00000F9C0000090
:10008000F7C00000F5C00000F3C00000F1C00000A0
:10009000EFC00000EDC00000EBC00000E9C00000B0
:1000A000E7C00000E5C00000E3C00000E1C00000C0
:1000B000DFC00000DDC00000DBC00000D9C00000D0
:1000C000D7C00000D5C00000D3C00000D1C00000E0
:1000D000CFC00000CDC00000CBC00000C9C00000F0
:1000E000C7C00000EC02EF02DE02E202E6022603D5
:1000F000F302F702FD02010305030B030F031303D1
:10010000260319031D0321030000210024002700FA
:100110002A002D0030003300010100000401070116
:100120000A0100000A0B02090C0D0E080703040166
:1001300000000000000000000000000000000000BF
:10014000000000000000000000000000000012118C
:10015000100000000000000000000000000000008F
:10016000000000000000000001021020200808101C
:100170002040102040800201020108040201010217
:1001800004081020408080402010080402018004F0
:10019000020180402010080402010804020101024B
:1001A0000408102040800102040810204080000054
:1001B0002200250028002B002E003100340002010F
:1001C0000000050108010B010505050507050808E4
:1001D0000808020202020A0A0808040404040101D1
:1001E00001010101010103030303030303030407E6
:1001F00007070C0C0C0C0C0C0C0C0202020206067D
:100200000606060606060B0B0B0B0B0B0B0B650409
:10021000D70811241FBECFEFD1E2DEBFCDBF00E073
:100220000CBF12E0A0E0B2E0E0E2F8E100E00BBFBA
:1002300002C007900D92AE38B107D9F724E0AEE8BE
:10024000B2E001C01D92AE39B207E1F711E0C8E09B
:10025000D1E000E005C021970109802FFE01D1D730
:10026000C730D10780E00807B1F74DD40C94FF0BDD
:10027000C7CE8F929F92AF92BF92CF92DF92EF92B2
:10028000FF924B01AA24BB24E82DC52ED62EE72EC3
:10029000FF24FC2D342F20913803222361F0829E0D
:1002A00040011124E92DC29E60011124FD2D429FC1
:1002B000D00111243B2FF0903E03E0903B03A0912E
:1002C0003903B0913A03FE1008C0AC01440F551F2A
:1002D000840F951F8A0F9B1F14C0880F991F880FCA
:1002E000991F8A0F9B1F472F552766277727DC0109
:1002F000AF0DB11D222321F0429FA0011124452FF3
:100300004C9320913B03DC01A20FB11DEC93209193
:100310003C03DC01A20FB11DFC9320913D03FC01C5
:10032000E20FF11D3083FF90EF90DF90CF90BF90F0
:10033000AF909F908F900895CF92DF92EF92FF92AF
:100340000F931F93CF93DF936C017A018B01C0E071
:10035000D0E0CE15DF0589F0D8016D918D01D60171
:10036000ED91FC910190F081E02DC6011995892B4A
:1003700011F47E0102C02196ECCFC701DF91CF912D
:100380001F910F91FF90EF90DF90CF900895FC01A7
:10039000918D828D981761F0828DDF01A80FB11DBC
:1003A0005D968C91928D9F5F9F73928F90E00895E0
:1003B0008FEF9FEF0895FC01918D828D981731F09A
:1003C000828DE80FF11D858D90E008958FEF9FEFEE
:1003D0000895FC01918D228D892F90E0805C9F4FC4
:1003E000821B91098F739927089586E493E0F1DFCA
:1003F00021E0892B09F420E0822F0895FC01848DEF
:10040000DF01A80FB11DA35ABF4F2C91848D90E03E
:1004100001968F739927848FA689B7892C93A08919
:10042000B1898C9180648C93938D848D981306C0D0
:100430000288F389E02D80818F7D80830895EF927B
:10044000FF920F931F93CF93DF93EC0181E0888F8E
:100450009B8D8C8D981305C0E889F989808185FD75
:1004600023C0F62E0B8D10E00F5F1F4F0F73112767
:10047000E02E8C8DE8120BC00FB607FCFACFE8898E
:10048000F989808185FFF5CFCE01B8DFF2CF8B8D62
:10049000FE01E80FF11DE35AFF4FF0820B8FEA894E
:1004A000FB898081806207C0EE89FF896083E889CB
:1004B000F98980818064808381E090E0DF91CF9131
:1004C0001F910F91FF90EF900895CF93DF93EC0170
:1004D000888D8823C1F0EA89FB89808185FD05C06C
:1004E000A889B9898C9186FD0EC00FB607FCF5CF9F
:1004F000808185FFF2CFA889B9898C9185FFEDCFE6
:10050000CE017CDFE8CFDF91CF91089580E090E0CD
:10051000892B19F06ADF811125C080E090E0892BDA
:1005200041F080E090E0892B21F00E9400008111D1
:100530001CC080E090E0892B41F080E090E0892BA6
:1005400021F00E940000811113C080E090E0892B0F
:10055000A1F080E090E0892B81F00E9400008111E1
:100560000AC008950E940000D8CF0E940000E1CF89
:100570000E940000EACF0C9400000895362F90E00E
:10058000FC01EE5DFE4F4491FC01E859FE4F2491C1
:10059000FC01E853FE4F9491992309F46AC0442367
:1005A00009F454C050E0FA013197E231F10508F046
:1005B0004DC08827EE58FF4F8F4F23C68091800093
:1005C0008F7707C0809180008F7D03C0809180006D
:1005D000877F809380003AC084B58F7702C084B54E
:1005E0008F7D84BD33C08091B0008F7703C0809130
:1005F000B0008F7D8093B00029C0809190008F77EC
:1006000007C0809190008F7D03C080919000877F0C
:10061000809390001BC08091A0008F7707C08091CD
:10062000A0008F7D03C08091A000877F8093A000F1
:100630000DC0809120018F7707C0809120018F7DB0
:1006400003C080912001877F80932001E92FF0E093
:10065000EE0FFF1FE255FE4FA591B4918FB7F894AE
:10066000EC91311103C020952E2301C02E2B2C9329
:100670008FBF0895CF93DF9390E0FC01E859FE4FC0
:100680002491FC01E853FE4F8491882361F190E0AE
:10069000880F991FFC01E85FFE4FC591D491FC01C2
:1006A000E255FE4FA591B491611109C09FB7F8942E
:1006B0008881209582238883EC912E230BC06230A1
:1006C00061F49FB7F8943881822F809583238883C3
:1006D000EC912E2B2C939FBF06C08FB7F894E88126
:1006E0002E2B28838FBFDF91CF910895863308F09A
:1006F000865390917B00282F2870977F922B9093A0
:100700007B008770806480937C0080917A00806495
:1007100080937A0080917A0086FDFCCF80917800EA
:100720002091790090E0922B08953FB7F894809142
:100730008F0290919002A0919102B091920226B501
:10074000A89B05C02F3F19F00196A11DB11D3FBF09
:10075000BA2FA92F982F8827820F911DA11DB11D97
:10076000BC01CD0142E0660F771F881F991F4A9593
:10077000D1F708950E94FB0B1F920F920FB60F92B4
:1007800011240BB60F922F933F934F935F936F9368
:100790007F938F939F93AF93BF93EF93FF9386E4E1
:1007A00093E02CDEFF91EF91BF91AF919F918F91DC
:1007B0007F916F915F914F913F912F910F900BBE61
:1007C0000F900FBE0F901F9018951F920F920FB6AB
:1007D0000F9211240BB60F922F938F939F93EF9349
:1007E000FF93E0915603F09157038081E0915C0301
:1007F000F0915D0382FD12C0908180915F038F5F55
:100800008F7320916003821751F0E0915F03F0E055
:10081000EA5BFC4F958F80935F0301C08081FF915D
:10082000EF919F918F912F910F900BBE0F900FBE64
:100830000F901F9018951F920F920FB60F921124D0
:100840002F933F938F939F93AF93BF938091930286
:1008500090919402A0919502B091960230918E02EF
:1008600023E0230F2D3720F40196A11DB11D05C0F3
:1008700026E8230F0296A11DB11D20938E028093BE
:10088000930290939402A0939502B0939602809164
:100890008F0290919002A0919102B09192020196E4
:1008A000A11DB11D80938F0290939002A09391029D
:1008B000B0939202BF91AF919F918F913F912F91F1
:1008C0000F900FBE0F901F90189510924903109231
:1008D000480388EE93E0A0E0B0E080934A03909351
:1008E0004B03A0934C03B0934D0382E892E09093A6
:1008F00047038093460385EC90E0909353038093E5
:10090000520384EC90E0909355038093540380EC61
:1009100090E0909357038093560381EC90E090937E
:1009200059038093580382EC90E090935B0380938B
:100930005A0386EC90E090935D0380935C031092E1
:100940005F0310926003109261031092620386E4C9
:1009500093E090939904809398041092E40310928A
:10096000E3031092E6031092E5031092E80310925D
:10097000E7031092EA031092E9031092EC0310923D
:10098000EB031092EE031092ED031092F00310921D
:10099000EF031092F2031092F1031092F4031092FD
:1009A000F3031092F6031092F5031092F8031092DD
:1009B000F7031092FA031092F9031092FC031092BD
:1009C000FB031092FE031092FD031092000410929C
:1009D000FF0310920204109201041092040410927A
:1009E0000304109206041092050410923203109230
:1009F000380310923F03109240031092410310926B
:100A0000420381E080933E0380933B0310923C03BA
:100A100082E080933D03109231038CE090E090934C
:100A2000360380933503BAD590933A038093390304
:100A3000009761F02CE0FC0111922A95E9F784E01F
:100A400090E0909334038093330308C010923603F0
:100A500010923503109234031092330385E3809390
:100A6000370380913203882331F061E085E302DEB1
:100A700060E085E383DDEDEFF1E0E491F0E0EE0F7F
:100A8000FF1FE255FE4F859194919093440380930C
:100A90004303EDE9F1E0E491E093450380E090E069
:100AA000A4E3B2E48093190390931A03A0931B0369
:100AB000B0931C0380931D0390931E03A0931F0308
:100AC000B09320038093210390932203A0932303E8
:100AD000B09324038093250390932603A0932703C8
:100AE000B09328038093290390932A03A0932B03A8
:100AF000B0932C0380932D0390932E03A0932F0388
:100B0000B09330030895CF93DF93CDB7DEB76597E9
:100B10000FB6F894DEBF0FBECDBF789484B5826067
:100B200084BD84B5816084BD85B5826085BD85B591
:100B3000816085BD80916E00816080936E0010920F
:100B4000810080918100826080938100809181008A
:100B5000816080938100809180008160809380001B
:100B60008091B10084608093B1008091B000816079
:100B70008093B00080919100826080939100809179
:100B800091008160809391008091900081608093BA
:100B900090008091A10082608093A1008091A100CB
:100BA00081608093A1008091A00081608093A0006B
:100BB00080912101826080932101809121018160D7
:100BC0008093210180912001816080932001809198
:100BD0007A00846080937A0080917A0082608093AA
:100BE0007A0080917A00816080937A0080917A0007
:100BF000806880937A001092C100E0919804F0918F
:100C00009904A089B18982E08C93A485B5851C9252
:100C1000A685B7858FE38C93108EA489B58986E06D
:100C20008C93A289B3898C9180618C93A289B389BA
:100C30008C9188608C93A289B3898C9180688C9305
:100C40000288F389E02D80818F7D808310920A04D1
:100C500010920904109208041092110410921004CA
:100C600010920F0410920E04109297041092140424
:100C7000109213041092120410921504109216048C
:100C80008091070481708260816080930704809165
:100C9000370387FD06C061E0EDDC60E0809137033B
:100CA0006DDC81E08093320320913803222331F1FF
:100CB0000091390310913A03215049F030E040E0AF
:100CC00050E06FEF7FEF80E090E07FD202C020E045
:100CD00030E0F8014091350350913603CF01801B7D
:100CE000910B8417950740F44081429FC001439FB8
:100CF000900D11249193EECF109238030FED12E076
:100D000042E7E42E42E0F42ED701DC90B2E0EB0E95
:100D1000F11C60E08D2DAEDC8D2DE8DCBC01990F5F
:100D2000880B990B24D3F80161937193819391936C
:100D30008F01F2E0073F1F0739F78FB7F894009152
:100D400093021091940220919502309196028FBFE8
:100D50000093110310931203209313033093140391
:100D60001092150310921603109217031092180395
:100D700061E08DE07FDC2FB7F89480919302909131
:100D80009402A0919502B09196022FBF1C012D01F3
:100D90009C01A20160E070E080E090E0A09011036F
:100DA000B0901203C0901303D0901403E090150389
:100DB000F090160300911703109118033AD2F22F06
:100DC000E32FA0E03FD21CF424D2F22FE32FFA87C6
:100DD000EB8720921103309212034092130350923A
:100DE0001403109215031092160310921703109219
:100DF000180380910F03909110032A853B85821B75
:100E0000930B97FF02C080E090E0909310038093D3
:100E10000F0387ECC82E82E0D82E97E9292E92E0A6
:100E2000392E2FEAE22E22E0F22E89E193E0998B0F
:100E3000888BA2E1B2E0BD87AC873FED832E32E024
:100E4000932EE2E7F2E0FF87EE87A12CB12CAE856E
:100E5000BF858C911296BF87AE8748DCBC01990F85
:100E6000880B990B84D22B013C0120E030E040E05C
:100E70005FE3F401608171818281938108D36A8B81
:100E80007B8B8C8B9D8B20E030E040E05FE3C301E7
:100E9000B201FDD29B01AC016A897B898C899D8955
:100EA00000D2D4016D937D938D939C931397F6019B
:100EB000008111812A853B85021B130B17FF02C09D
:100EC00000E010E0D6010D931C93A3019201E8D13C
:100ED0002B013C0120E030E0A901D5D2181624F006
:100EE00077FA709477F87094E889F98921913191B3
:100EF00041915191F98BE88BC301B201C4D218160C
:100F00009CF5012BB1F5EFE7F0E0D701ED93FC93F1
:100F1000E4E6F0E0D601ED93FC9322E830E0309374
:100F2000100320930F03612C712C00E010E0EC857E
:100F3000FD85E60DF71D40815181628173818091AD
:100F40003303909134030817190710F4C80191D99D
:100F50000F5F1F4F34E0630E711C0430110539F729
:100F600061E08DE00BDB05C0012B19F4D7011D9268
:100F70001C9280910F0390911003892BB9F400E02B
:100F800010E080913303909134030817190730F46F
:100F900042E058E064E070E0C8016BD90F5F1F4F7A
:100FA0000430110571F760E08DE0E8DAF7010081A7
:100FB0001181D1018D919C9180179107B9F1F501B3
:100FC000EA5FFD4F708080910904803979F0B0E9C3
:100FD000B09309048091980490919904DC01ED91FB
:100FE000FC910190F081E02D60E9199580919804C1
:100FF00090919904DC01ED91FC91672D6F77019040
:10100000F081E02D19958091980490919904DC016C
:10101000ED91FC91602F6F770190F081E02D199593
:10102000F70180819181D1018D939C93B2E0AB0E49
:10103000B11CE4E08E0E911CF2E0CF0ED11C22E038
:10104000220E311C32E0E30EF11C8C859D8540960A
:101050009D878C879CE0A916B10409F0F8CE809199
:10106000390390913A03892B09F49FC05EDB00910C
:101070003F03109140032091410330914203DC0172
:10108000CB01801B910BA20BB30BC297A105B1053D
:1010900068F3F89480913503909136039A8389839D
:1010A000E0913903F0913A03DF011196808189873D
:1010B00090913103E0914303F09144038091450303
:1010C000992309F42EC09081982B98879081809560
:1010D00089238F838F818C8388E08B8358856F81F0
:1010E00049853B812C8189819A81508347FD252F39
:1010F0003A952083262F39F0441F00C000006083FA
:10110000000000C0F2CF38E04D91608300000197ED
:1011100061F7F0934403E093430349873B832C83B7
:1011200038C09081982B98879081809589238F83F0
:101130008F818E8388E08D8358856F8149853D81BD
:101140002E8189819A81508347FD252F00C000C0E0
:10115000208300C000C000C000C000C06083000049
:10116000262F3A9541F0441F000000C000C000C087
:1011700000C000C0E8CF38E04D9100C0608300C0DF
:10118000019709F7F0934403E093430349873D83B4
:101190002E839A8389837894C8DA60933F0370938F
:1011A00040038093410390934203B0D9E4CD8091F2
:1011B000390390913A03009709F085D28091370363
:1011C00087FD02C060E056CA0895052E97FB16F40D
:1011D00000940FD057FD05D041D007FC02D046F453
:1011E00008C050954095309521953F4F4F4F5F4F28
:1011F000089590958095709561957F4F8F4F9F4F83
:101200000895EE0FFF1F881F8BBF0790F691E02D0A
:10121000199460957095809590953095409550956E
:1012200021953F4F4F4F5F4F6F4F7F4F8F4F9F4FD6
:1012300008952A193B094C095D096E097F09800B45
:10124000910B08950024A7FD00942A17300540054E
:10125000500560057005800590050895A1E21A2EDD
:10126000AA1BBB1BFD010DC0AA1FBB1FEE1FFF1F4A
:10127000A217B307E407F50720F0A21BB30BE40B9A
:10128000F50B661F771F881F991F1A9469F76095E1
:101290007095809590959B01AC01BD01CF0108959B
:1012A0005058BB27AA270ED0B4C0A5D030F0AAD082
:1012B00020F031F49F3F11F41EF49AC00EF4E09533
:1012C000E7FB90C0E92FB6D080F3BA176207730727
:1012D0008407950718F071F49EF5CEC00EF4E095E2
:1012E0000B2EBA2FA02D0B01B90190010C01CA01E0
:1012F000A0011124FF27591B99F0593F50F4503E8B
:1013000068F11A16F040A22F232F342F4427585F7C
:10131000F3CF469537952795A795F0405395C9F794
:101320007EF41F16BA0B620B730B840BBAF091504C
:10133000A1F0FF0FBB1F661F771F881FC2F70EC0EB
:10134000BA0F621F731F841F48F4879577956795BE
:10135000B795F7959E3F08F0B3CF9395880F08F0A7
:101360009927EE0F979587950895E89409C097FB04
:101370003EF490958095709561957F4F8F4F9F4F6C
:101380009923A9F0F92F96E9BB279395F6958795B0
:1013900077956795B795F111F8CFFAF4BB0F11F473
:1013A00060FF1BC06F5F7F4F8F4F9F4F16C088231A
:1013B00011F096E911C0772321F09EE8872F762F50
:1013C00005C0662371F096E8862F70E060E02AF091
:1013D0009A95660F771F881FDAF7880F969587957D
:1013E00097F9089597F99F6780E870E060E00895A5
:1013F0009FEF80EC089500240A941616170618062D
:101400000906089500240A94121613061406050608
:101410000895092E0394000C11F4882352F0BB0F99
:1014200040F4BF2B11F460FF04C06F5F7F4F8F4FFC
:101430009F4F089557FD9058440F551F59F05F3F37
:1014400071F04795880F97FB991F61F09F3F79F0E6
:1014500087950895121613061406551FF2CF469568
:10146000F1DF08C0161617061806991FF1CF8695EA
:101470007105610508940895E894BB2766277727CE
:10148000CB0197F9089566D008F48FEF08950BD03B
:10149000C0CFB1DF28F0B6DF18F0952309F0A2CF56
:1014A000A7CF1124EACFC6DFA0F3959FD1F3950F04
:1014B00050E0551F629FF001729FBB27F00DB11DD8
:1014C000639FAA27F00DB11DAA1F649F6627B00D68
:1014D000A11D661F829F2227B00DA11D621F739F51
:1014E000B00DA11D621F839FA00D611D221F749F5F
:1014F0003327A00D611D231F849F600D211D822FA6
:10150000762F6A2F11249F5750408AF0E1F08823EC
:101510004AF0EE0FFF1FBB1F661F771F881F9150F9
:101520005040A9F79E3F510570F05CCFA6CF5F3FBA
:10153000ECF3983EDCF3869577956795B795F7952C
:10154000E7959F5FC1F7FE2B880F911D96958795B4
:1015500097F90895990F0008550FAA0BE0E8FEEFE0
:1015600016161706E807F907C0F012161306E40767
:10157000F50798F0621B730B840B950B39F40A2660
:1015800061F0232B242B252B21F408950A2609F43E
:10159000A140A6958FEF811D811D0895CF93DF9304
:1015A0008230910510F482E090E0E0919C04F0918B
:1015B0009D0420E030E0C0E0D0E0309711F14081A0
:1015C000518148175907C0F04817590761F48281C3
:1015D0009381209719F09B838A832BC090939D045D
:1015E00080939C0426C02115310519F0421753073A
:1015F00018F49A01BE01DF01EF010280F381E02DB2
:10160000DCCF2115310509F1281B390B24303105B8
:1016100090F412968D919C9113976115710521F0AC
:10162000FB019383828304C090939D0480939C0468
:10163000FD01329644C0FD01E20FF31F81939193A7
:10164000225031092D933C933AC020919A04309155
:101650009B04232B41F4209102023091030230932A
:101660009B0420939A0420910002309101022115DD
:10167000310541F42DB73EB7409104025091050267
:10168000241B350BE0919A04F0919B04E217F307B9
:10169000A0F42E1B3F0B2817390778F0AC014E5FE2
:1016A0005F4F2417350748F04E0F5F1F50939B0480
:1016B00040939A048193919302C0E0E0F0E0CF015F
:1016C000DF91CF9108950F931F93CF93DF930097EE
:1016D00009F48CC0FC0132971382128200919C04A1
:1016E00010919D040115110581F420813181820F33
:1016F000931F20919A0430919B042817390779F59C
:10170000F0939B04E0939A0471C0D80140E050E04C
:10171000AE17BF0750F412962D913C911397AD016F
:101720002115310509F1D901F3CF9D01DA01338388
:10173000228360817181860F971F8217930769F456
:10174000EC0128813981260F371F2E5F3F4F3183EF
:1017500020838A819B8193838283452B29F4F09394
:101760009D04E0939C0442C01396FC93EE93129761
:10177000ED01499159919E01240F351FE217F3079E
:1017800071F480819181840F951F029611969C932C
:101790008E938281938113969C938E931297E0E0AF
:1017A000F0E0D80112968D919C911397009719F053
:1017B000F8018C01F6CF8D919C9198012E5F3F4FDF
:1017C000820F931F20919A0430919B0428173907A8
:1017D00069F4309729F410929D0410929C0402C081
:1017E0001382128210939B0400939A04DF91CF918D
:1017F0001F910F91089581E090E0F89400C011E0EE
:10180000C8E0D1E000E005C0802FFE01FADC21969F
:10181000011DC930D10780E00807B1F7F894FFCF68
:1018200000009E04800024002500260027002800D8
:101830002900FFFF0000FFFF0000FFFF0000FFFF87
:10184000000005FFDF0005FFDF0005FFDF0005FFEB
:10185000DF0032FF960032FF960032FF960032FF23
:10186000960032FF960032FF960032FF960032FF5C
:101870009600FF00FF0040FF200040FF200040FFD7
:101880002000FFFF0000FF00FF0000FFFF00FF003F
:101890000000360038003A003E00400042000000E0
:0E18A00000001F029C01E901C701DB01650287
:00000001FF
