:1000000007C1000033C1000031C100002FC1000052
:100010002DC100002BC1000029C1000027C1000034
:1000200025C1000023C1000021C100001FC1000044
:100030001DC100001BC1000019C1000017C1000054
:1000400015C1000013C1000011C100000FC1000064
:100050000DC100000BC1000009C1000023C3000056
:1000600005C10000E9C20000BEC20000FFC00000E0
:10007000FDC00000FBC00000F9C00000F7C0000098
:10008000F5C00000F3C00000F1C00000EFC00000A8
:10009000EDC00000EBC00000E9C00000E7C00000B8
:1000A000E5C00000E3C00000E1C00000DFC00000C8
:1000B000DDC00000DBC00000D9C00000D7C00000D8
:1000C000D5C00000D3C00000D1C00000CFC00000E8
:1000D000CDC00000CBC00000C9C00000C7C00000F8
:1000E000C5C0000062016501540158015C019C011A
:1000F00069016D01730177017B018101850189012E
:100100009C018F019301970100002100240027002A
:100110002A002D0030003300010100000401070116
:100120000A0100002200250028002B002E003100CB
:10013000340002010000050108010B010505050559
:10014000070508080808020202020A0A080804044F
:10015000040401010101010101010303030303037D
:100160000303040707070C0C0C0C0C0C0C0C02020C
:10017000020206060606060606060B0B0B0B0B0B09
:100180000B0B010210202008081020401020408096
:10019000020102010804020101020408102040804B
:1001A00080402010080402018004020180402010D9
:1001B0000804020108040201010204081020408022
:1001C000010204081020408000000A0B02090C0DF7
:1001D0000E080703040100000000000000000000FA
:1001E000000000000000000000000000000000000F
:1001F00000000000121110000000000000000000CC
:1002000000000000000000000000000000009C034F
:1002100011241FBECFEFD1E2DEBFCDBF00E00CBF87
:1002200012E0A0E0B2E0ECE6F0E100E00BBF02C0BB
:1002300007900D92A832B107D9F724E0A8E2B2E006
:1002400001C01D92AD31B207E1F711E0C8E0D1E085
:1002500000E005C021970109802FFE0156D5C73067
:10026000D10780E00807B1F7F5D2FEC6C9CECF931B
:10027000C82FE5EDF1E04491EFE8F1E02491E9E4E5
:10028000F1E09491992309F46AC0442309F454C01D
:1002900050E0FA013197E231F10508F04DC08827AE
:1002A000EE58FF4F8F4F31C5809180008F7707C088
:1002B000809180008F7D03C080918000877F809334
:1002C00080003AC084B58F7702C084B58F7D84BD2D
:1002D00033C08091B0008F7703C08091B0008F7DD4
:1002E0008093B00029C0809190008F7707C08091E3
:1002F00090008F7D03C080919000877F8093900055
:100300001BC08091A0008F7707C08091A0008F7DD7
:1003100003C08091A000877F8093A0000DC0309122
:1003200020013F7707C0309120013F7D03C030910D
:100330002001377F30932001E92FF0E0EE0FFF1FFF
:10034000EE5DFE4FA591B4918FB7F894EC91C11179
:1003500003C020952E2301C02E2B2C938FBFCF914D
:100360000895CF92DF92EF92FF920F931F93CF9356
:10037000DF936C017A018B01C0E0D0E0CE15DF0580
:1003800089F0D8016D918D01D601ED91FC9101901C
:10039000F081E02DC6011995892B11F47E0102C070
:1003A0002196ECCFC701DF91CF911F910F91FF9064
:1003B000EF90DF90CF900895FC01918D828D98177A
:1003C00061F0828DDF01A80FB11D5D968C91928D39
:1003D0009F5F9F73928F90E008958FEF9FEF089536
:1003E000FC01918D828D981731F0828DE80FF11DFF
:1003F000858D90E008958FEF9FEF0895FC01918D1A
:10040000228D892F90E0805C9F4F821B91098F7312
:100410009927089589EC92E0F1DF21E0892B09F416
:1004200020E0822F0895FC01848DDF01A80FB11D0B
:10043000A35ABF4F2C91848D90E001968F7399271A
:10044000848FA689B7892C93A089B1898C91806407
:100450008C93938D848D981306C00288F389E02DC8
:1004600080818F7D80830895EF92FF920F931F9379
:10047000CF93DF93EC0181E0888F9B8D8C8D981357
:1004800005C0E889F989808185FD23C0F62E0B8D92
:1004900010E00F5F1F4F0F731127E02E8C8DE812B5
:1004A0000BC00FB607FCFACFE889F989808185FF78
:1004B000F5CFCE01B8DFF2CF8B8DFE01E80FF11D35
:1004C000E35AFF4FF0820B8FEA89FB8980818062BB
:1004D00007C0EE89FF896083E889F989808180649B
:1004E000808381E090E0DF91CF911F910F91FF9089
:1004F000EF900895CF93DF93EC01888D8823C1F0AE
:10050000EA89FB89808185FD05C0A889B9898C911C
:1005100086FD0EC00FB607FCF5CF808185FFF2CFB8
:10052000A889B9898C9185FFEDCFCE017CDFE8CF1A
:10053000DF91CF91089580E090E0892B19F06ADF78
:10054000811125C080E090E0892B41F080E090E0AF
:10055000892B21F00E94000081111CC080E090E0F6
:10056000892B41F080E090E0892B21F00E9400006F
:10057000811113C080E090E0892BA1F080E090E031
:10058000892B81F00E94000081110AC008950E9409
:100590000000D8CF0E940000E1CF0E940000EACF07
:1005A0000C9400000895863308F0865390917B00E8
:1005B000282F2870977F922B90937B008770806400
:1005C00080937C0080917A00806480937A0080918F
:1005D0007A0086FDFCCF809178002091790090E030
:1005E000922B08953DD51F920F920FB60F921124B2
:1005F0000BB60F922F933F934F935F936F937F931D
:100600008F939F93AF93BF93EF93FF9389EC92E007
:100610000ADFFF91EF91BF91AF919F918F917F91F1
:100620006F915F914F913F912F910F900BBE0F9063
:100630000FBE0F901F9018951F920F920FB60F923A
:1006400011240BB60F922F938F939F93EF93FF93E9
:10065000E091D902F091DA028081E091DF02F0911D
:10066000E00282FD12C090818091E2028F5F8F7361
:100670002091E302821751F0E091E202F0E0E753AB
:10068000FD4F958F8093E20201C08081FF91EF9131
:100690009F918F912F910F900BBE0F900FBE0F90D7
:1006A0001F9018951F920F920FB60F9211242F933F
:1006B0003F938F939F93AF93BF9380912D0290911F
:1006C0002E02A0912F02B091300230912C0223E033
:1006D000230F2D3720F40196A11DB11D05C026E87A
:1006E000230F0296A11DB11D20932C0280932D0291
:1006F00090932E02A0932F02B09330028091280293
:1007000090912902A0912A02B0912B020196A11D7D
:10071000B11D8093280290932902A0932A02B093DE
:100720002B02BF91AF919F918F913F912F910F908D
:100730000FBE0F901F901895A9ECB2E013961C9273
:100740001E92129748EE53E060E070E014964D93CD
:100750005D936D937C9317978CE192E011969C9337
:100760008E9385EC90E01D969C938E931C9784EC61
:1007700090E01F969C938E931E9780EC90E051968C
:100780009C938E93509781EC90E053969C938E931C
:10079000529782EC90E055969C938E93549786ECFA
:1007A00090E057969C938E93569759961C92599722
:1007B0005A961C925A975B961C925B975C961C9279
:1007C0005C97E6E6F3E0B0931C04A0931B0411824F
:1007D0001082138212821582148217821682118669
:1007E0001086138612861586148617861686118A39
:1007F000108A138A128A158A148A178A168A118E09
:10080000108E138E128E158E148E178E168E11A2C8
:1008100010A213A212A2E1EBF2E080E090E0A4E3C8
:10082000B2E480839183A283B38384839583A68378
:10083000B78380879187A287B38784879587A687A8
:10084000B787808B918BA28BB38B848B958BA68B78
:10085000B78B0895CF93DF93CDB7DEB728970FB648
:10086000F894DEBF0FBECDBF789484B5826084BD9E
:1008700084B5816084BD85B5826085BD85B58160A4
:1008800085BD80916E00816080936E001092810022
:1008900080918100826080938100809181008160DD
:1008A000809381008091800081608093800080919E
:1008B000B10084608093B1008091B000816080932A
:1008C000B0008091910082608093910080919100AE
:1008D000816080939100809190008160809390006E
:1008E0008091A10082608093A1008091A10081602D
:1008F0008093A1008091A00081608093A0008091EE
:100900002101826080932101809121018160809387
:1009100021018091200181608093200180917A00E3
:10092000846080937A0080917A00826080937A005C
:1009300080917A00816080937A0080917A0080684B
:1009400080937A001092C100E0911B04F0911C0486
:10095000A089B18982E08C93A485B5851C92A68577
:10096000B7858FE38C93108EA489B58986E08C932C
:10097000A289B3898C9180618C93A289B3898C916F
:1009800088608C93A289B3898C9180688C9302884B
:10099000F389E02D80818F7D808310928D031092EA
:1009A0008C0310928B031092940310929303109275
:1009B00092031092910310921A04109297031092CE
:1009C00096031092950310929803109299038091C8
:1009D0008A0381708260816080938A0309E712E054
:1009E0005CE0E52E52E0F52ED7018D919C91119798
:1009F0009927FC01EE57FE4F2491FC01E45CFE4F69
:100A000084918823C9F090E0880F991FFC01E85F6A
:100A1000FE4F45915491FC01EE5DFE4F659174913E
:100A20009FB7F894FA018081209582238083FB018F
:100A30008081822380839FBFF2E0EF0EF11C8C91B6
:100A4000B2DDBC01990F880B990BF3D1D8016D93DE
:100A50007D938D939D938D01B8E1EB16B2E0FB067B
:100A600009F0C2CF2FB7F89480912D0290912E02F9
:100A7000A0912F02B09130022FBF8C019D01809375
:100A8000A9021093AA022093AB023093AC021092F9
:100A9000AD021092AE021092AF021092B002EFE8D7
:100AA000F1E02491E9E4F1E08491882399F090E069
:100AB000880F991FFC01E85FFE4FA591B491FC01DE
:100AC000EE5DFE4F859194918FB7F894EC91E22BF7
:100AD000EC938FBF2FB7F89480912D0290912E0246
:100AE000A0912F02B09130022FBF1C012D019C015B
:100AF000A20160E070E080E090E0A090A902B090D8
:100B0000AA02C090AB02D090AC02E090AD02F0908F
:100B1000AE020091AF021091B0020FD1F22FE32F7D
:100B2000A0E014D11CF4F9D0F22FE32FFD83EE8363
:100B30002092A9023092AA024092AB025092AC02DB
:100B40001092AD021092AE021092AF021092B0025B
:100B500081E6E82E82E0F82E91E3292E92E0392EEC
:100B600009E412E0E1EBF2E0F887EF8329E732E0F5
:100B70003A8329838CE092E09C838B83C12CD12C17
:100B8000AB81BC818C911296BC83AB830CDDBC0124
:100B9000990F880B990B4DD14B015C0120E030E09F
:100BA00040E05FE3E981FA81608171818281938114
:100BB000D0D12B013C0120E030E040E05FE3C501F3
:100BC000B401C7D19B01AC01C301B201CCD0A98152
:100BD000BA816D937D938D939C931397F7016080F9
:100BE00071802D813E81621A730A77FE02C0612CEA
:100BF000712CD7016D927C92A5019401B3D04B0169
:100C00005C0120E030E0A901A0D1181624F0B7FA69
:100C1000B094B7F8B094EF81F8852191319141916A
:100C20005191F887EF83C501B4018FD118167CF478
:100C30006728A1F4EFE7F0E0D801ED93FC93E4E638
:100C4000F0E0D701ED93FC9381E011DB07C067284A
:100C500029F480E00CDBD8011D921C92F801808001
:100C60009180D1018D919C9188159905B9F1F6017A
:100C7000E050FE4FB08080918C03803979F0B0E96C
:100C8000B0938C0380911B0490911C04DC01ED91C6
:100C9000FC910190F081E02D60E9199580911B0491
:100CA00090911C04DC01ED91FC916B2D6F7701900C
:100CB000F081E02D199580911B0490911C04DC01BA
:100CC000ED91FC91682D6F770190F081E02D1995E1
:100CD000F80180819181D1018D939C93B2E0CB0E7C
:100CE000D11CE981FA813496FA83E983F2E0EF0EB0
:100CF000F11C22E0220E311C0E5F1F4F3CE0C31698
:100D0000D10409F03DCF17DCE5CEEE0FFF1F881FA1
:100D10008BBF0790F691E02D1994609570958095A2
:100D2000909530954095509521953F4F4F4F5F4F8F
:100D30006F4F7F4F8F4F9F4F08952A193B094C09E2
:100D40005D096E097F09800B910B08950024A7FDB2
:100D500000942A1730054005500560057005800590
:100D6000900508955058BB27AA270ED0B4C0A5D02F
:100D700030F0AAD020F031F49F3F11F41EF49AC055
:100D80000EF4E095E7FB90C0E92FB6D080F3BA17D8
:100D9000620773078407950718F071F49EF5CEC0BB
:100DA0000EF4E0950B2EBA2FA02D0B01B901900186
:100DB0000C01CA01A0011124FF27591B99F0593FCA
:100DC00050F4503E68F11A16F040A22F232F342F12
:100DD0004427585FF3CF469537952795A795F04060
:100DE0005395C9F77EF41F16BA0B620B730B840B75
:100DF000BAF09150A1F0FF0FBB1F661F771F881F2D
:100E0000C2F70EC0BA0F621F731F841F48F4879584
:100E100077956795B795F7959E3F08F0B3CF939573
:100E2000880F08F09927EE0F979587950895E89415
:100E300009C097FB3EF490958095709561957F4F22
:100E40008F4F9F4F9923A9F0F92F96E9BB279395D0
:100E5000F695879577956795B795F111F8CFFAF4E0
:100E6000BB0F11F460FF1BC06F5F7F4F8F4F9F4F11
:100E700016C0882311F096E911C0772321F09EE86F
:100E8000872F762F05C0662371F096E8862F70E0D5
:100E900060E02AF09A95660F771F881FDAF7880FAF
:100EA0009695879597F9089597F99F6780E870E080
:100EB00060E008959FEF80EC089500240A941616D0
:100EC000170618060906089500240A941216130638
:100ED000140605060895092E0394000C11F48823C6
:100EE00052F0BB0F40F4BF2B11F460FF04C06F5FE2
:100EF0007F4F8F4F9F4F089557FD9058440F551FB8
:100F000059F05F3F71F04795880F97FB991F61F08B
:100F10009F3F79F087950895121613061406551F02
:100F2000F2CF4695F1DF08C0161617061806991F6E
:100F3000F1CF86957105610508940895E894BB2763
:100F400066277727CB0197F9089566D008F48FEFCD
:100F500008950BD0C0CFB1DF28F0B6DF18F095238D
:100F600009F0A2CFA7CF1124EACFC6DFA0F3959F47
:100F7000D1F3950F50E0551F629FF001729FBB2780
:100F8000F00DB11D639FAA27F00DB11DAA1F649F2C
:100F90006627B00DA11D661F829F2227B00DA11DDF
:100FA000621F739FB00DA11D621F839FA00D611D65
:100FB000221F749F3327A00D611D231F849F600D86
:100FC000211D822F762F6A2F11249F5750408AF0BF
:100FD000E1F088234AF0EE0FFF1FBB1F661F771F4B
:100FE000881F91505040A9F79E3F510570F05CCF8B
:100FF000A6CF5F3FECF3983EDCF386957795679537
:10100000B795F795E7959F5FC1F7FE2B880F911D68
:101010009695879597F90895990F0008550FAA0B93
:10102000E0E8FEEF16161706E807F907C0F01216FB
:101030001306E407F50798F0621B730B840B950BFE
:1010400039F40A2661F0232B242B252B21F4089553
:101050000A2609F4A140A6958FEF811D811D0895F0
:0C10600081E090E0F89400C0F894FFCF0D
:10106C00240025002600270028002900360038001F
:10107C003A003E0040004200000000003402B10182
:08108C00FE01DC01F0017A0213
:00000001FF
