:1000000008C1000035C1000033C1000031C100004B
:100010002FC100002DC100002BC1000029C100002C
:1000200027C1000025C1000023C1000021C100003C
:100030001FC100001DC100001BC1000019C100004C
:1000400017C1000015C1000013C1000011C100005C
:100050000FC100000DC100000BC10000ECC3000087
:1000600007C10000B2C3000087C3000001C1000047
:10007000FFC00000FDC00000FBC00000F9C0000090
:10008000F7C00000F5C00000F3C00000F1C00000A0
:10009000EFC00000EDC00000EBC00000E9C00000B0
:1000A000E7C00000E5C00000E3C00000E1C00000C0
:1000B000DFC00000DDC00000DBC00000D9C00000D0
:1000C000D7C00000D5C00000D3C00000D1C00000E0
:1000D000CFC00000CDC00000CBC00000C9C00000F0
:1000E000C7C00000EC02EF02DE02E202E6022603D5
:1000F000F302F702FD02010305030B030F031303D1
:10010000260319031D0321030000210024002700FA
:100110002A002D0030003300010100000401070116
:100120000A0100000A0B02090C0D0E080703040166
:1001300000000000000000000000000000000000BF
:10014000000000000000000000000000000012118C
:10015000100000000000000000000000000000008F
:10016000000000000000000001021020200808101C
:100170002040102040800201020108040201010217
:1001800004081020408080402010080402018004F0
:10019000020180402010080402010804020101024B
:1001A0000408102040800102040810204080000054
:1001B0002200250028002B002E003100340002010F
:1001C0000000050108010B010505050507050808E4
:1001D0000808020202020A0A0808040404040101D1
:1001E00001010101010103030303030303030407E6
:1001F00007070C0C0C0C0C0C0C0C0202020206067D
:100200000606060606060B0B0B0B0B0B0B0B650409
:10021000E70811241FBECFEFD1E2DEBFCDBF00E063
:100220000CBF12E0A0E0B2E0E0E4F8E100E00BBFB8
:1002300002C007900D92AE38B107D9F724E0AEE8BE
:10024000B2E001C01D92AE39B207E1F711E0C8E09B
:10025000D1E000E005C021970109802FFE01E1D720
:10026000C730D10780E00807B1F75DD40C940F0CBC
:10027000C7CE8F929F92AF92BF92CF92DF92EF92B2
:10028000FF924B01AA24BB24E82DC52ED62EE72EC3
:10029000FF24FC2D342F20913803222361F0829E0D
:1002A00040011124E92DC29E60011124FD2D429FC1
:1002B000D00111243B2FF0903E03E0903B03A0912E
:1002C0003903B0913A03FE1008C0AC01440F551F2A
:1002D000840F951F8A0F9B1F14C0880F991F880FCA
:1002E000991F8A0F9B1F472F552766277727DC0109
:1002F000AF0DB11D222321F0429FA0011124452FF3
:100300004C9320913B03DC01A20FB11DEC93209193
:100310003C03DC01A20FB11DFC9320913D03FC01C5
:10032000E20FF11D3083FF90EF90DF90CF90BF90F0
:10033000AF909F908F900895CF92DF92EF92FF92AF
:100340000F931F93CF93DF936C017A018B01C0E071
:10035000D0E0CE15DF0589F0D8016D918D01D60171
:10036000ED91FC910190F081E02DC6011995892B4A
:1003700011F47E0102C02196ECCFC701DF91CF912D
:100380001F910F91FF90EF90DF90CF900895FC01A7
:10039000918D828D981761F0828DDF01A80FB11DBC
:1003A0005D968C91928D9F5F9F73928F90E00895E0
:1003B0008FEF9FEF0895FC01918D828D981731F09A
:1003C000828DE80FF11D858D90E008958FEF9FEFEE
:1003D0000895FC01918D228D892F90E0805C9F4FC4
:1003E000821B91098F739927089586E493E0F1DFCA
:1003F00021E0892B09F420E0822F0895FC01848DEF
:10040000DF01A80FB11DA35ABF4F2C91848D90E03E
:1004100001968F739927848FA689B7892C93A08919
:10042000B1898C9180648C93938D848D981306C0D0
:100430000288F389E02D80818F7D80830895EF927B
:10044000FF920F931F93CF93DF93EC0181E0888F8E
:100450009B8D8C8D981305C0E889F989808185FD75
:1004600023C0F62E0B8D10E00F5F1F4F0F73112767
:10047000E02E8C8DE8120BC00FB607FCFACFE8898E
:10048000F989808185FFF5CFCE01B8DFF2CF8B8D62
:10049000FE01E80FF11DE35AFF4FF0820B8FEA894E
:1004A000FB898081806207C0EE89FF896083E889CB
:1004B000F98980818064808381E090E0DF91CF9131
:1004C0001F910F91FF90EF900895CF93DF93EC0170
:1004D000888D8823C1F0EA89FB89808185FD05C06C
:1004E000A889B9898C9186FD0EC00FB607FCF5CF9F
:1004F000808185FFF2CFA889B9898C9185FFEDCFE6
:10050000CE017CDFE8CFDF91CF91089580E090E0CD
:10051000892B19F06ADF811125C080E090E0892BDA
:1005200041F080E090E0892B21F00E9400008111D1
:100530001CC080E090E0892B41F080E090E0892BA6
:1005400021F00E940000811113C080E090E0892B0F
:10055000A1F080E090E0892B81F00E9400008111E1
:100560000AC008950E940000D8CF0E940000E1CF89
:100570000E940000EACF0C9400000895362F90E00E
:10058000FC01EE5DFE4F4491FC01E859FE4F2491C1
:10059000FC01E853FE4F9491992309F46AC0442367
:1005A00009F454C050E0FA013197E231F10508F046
:1005B0004DC08827EE58FF4F8F4F33C68091800083
:1005C0008F7707C0809180008F7D03C0809180006D
:1005D000877F809380003AC084B58F7702C084B54E
:1005E0008F7D84BD33C08091B0008F7703C0809130
:1005F000B0008F7D8093B00029C0809190008F77EC
:1006000007C0809190008F7D03C080919000877F0C
:10061000809390001BC08091A0008F7707C08091CD
:10062000A0008F7D03C08091A000877F8093A000F1
:100630000DC0809120018F7707C0809120018F7DB0
:1006400003C080912001877F80932001E92FF0E093
:10065000EE0FFF1FE255FE4FA591B4918FB7F894AE
:10066000EC91311103C020952E2301C02E2B2C9329
:100670008FBF0895CF93DF9390E0FC01E859FE4FC0
:100680002491FC01E853FE4F8491882361F190E0AE
:10069000880F991FFC01E85FFE4FC591D491FC01C2
:1006A000E255FE4FA591B491611109C09FB7F8942E
:1006B0008881209582238883EC912E230BC06230A1
:1006C00061F49FB7F8943881822F809583238883C3
:1006D000EC912E2B2C939FBF06C08FB7F894E88126
:1006E0002E2B28838FBFDF91CF910895863308F09A
:1006F000865390917B00282F2870977F922B9093A0
:100700007B008770806480937C0080917A00806495
:1007100080937A0080917A0086FDFCCF80917800EA
:100720002091790090E0922B08953FB7F894809142
:100730008F0290919002A0919102B091920226B501
:10074000A89B05C02F3F19F00196A11DB11D3FBF09
:10075000BA2FA92F982F8827820F911DA11DB11D97
:10076000BC01CD0142E0660F771F881F991F4A9593
:10077000D1F708950E940B0C1F920F920FB60F92A3
:1007800011240BB60F922F933F934F935F936F9368
:100790007F938F939F93AF93BF93EF93FF9386E4E1
:1007A00093E02CDEFF91EF91BF91AF919F918F91DC
:1007B0007F916F915F914F913F912F910F900BBE61
:1007C0000F900FBE0F901F9018951F920F920FB6AB
:1007D0000F9211240BB60F922F938F939F93EF9349
:1007E000FF93E0915603F09157038081E0915C0301
:1007F000F0915D0382FD12C0908180915F038F5F55
:100800008F7320916003821751F0E0915F03F0E055
:10081000EA5BFC4F958F80935F0301C08081FF915D
:10082000EF919F918F912F910F900BBE0F900FBE64
:100830000F901F9018951F920F920FB60F921124D0
:100840002F933F938F939F93AF93BF938091930286
:1008500090919402A0919502B091960230918E02EF
:1008600023E0230F2D3720F40196A11DB11D05C0F3
:1008700026E8230F0296A11DB11D20938E028093BE
:10088000930290939402A0939502B0939602809164
:100890008F0290919002A0919102B09192020196E4
:1008A000A11DB11D80938F0290939002A09391029D
:1008B000B0939202BF91AF919F918F913F912F91F1
:1008C0000F900FBE0F901F90189510924903109231
:1008D000480388EE93E0A0E0B0E080934A03909351
:1008E0004B03A0934C03B0934D0382E892E09093A6
:1008F00047038093460385EC90E0909353038093E5
:10090000520384EC90E0909355038093540380EC61
:1009100090E0909357038093560381EC90E090937E
:1009200059038093580382EC90E090935B0380938B
:100930005A0386EC90E090935D0380935C031092E1
:100940005F0310926003109261031092620386E4C9
:1009500093E090939904809398041092E40310928A
:10096000E3031092E6031092E5031092E80310925D
:10097000E7031092EA031092E9031092EC0310923D
:10098000EB031092EE031092ED031092F00310921D
:10099000EF031092F2031092F1031092F4031092FD
:1009A000F3031092F6031092F5031092F8031092DD
:1009B000F7031092FA031092F9031092FC031092BD
:1009C000FB031092FE031092FD031092000410929C
:1009D000FF0310920204109201041092040410927A
:1009E0000304109206041092050410923203109230
:1009F000380310923F03109240031092410310926B
:100A0000420381E080933E0380933B0310923C03BA
:100A100082E080933D03109231038CE090E090934C
:100A2000360380933503CAD590933A0380933903F4
:100A3000009761F02CE0FC0111922A95E9F784E01F
:100A400090E0909334038093330308C010923603F0
:100A500010923503109234031092330385E3809390
:100A6000370380913203882331F061E085E302DEB1
:100A700060E085E383DDEDEFF1E0E491F0E0EE0F7F
:100A8000FF1FE255FE4F859194919093440380930C
:100A90004303EDE9F1E0E491E093450380E090E069
:100AA000A8E4B2E48093190390931A03A0931B0364
:100AB000B0931C0380E090E0A6E6B2E480931D03AF
:100AC00090931E03A0931F03B093200380E090E057
:100AD000A2E8B2E48093210390932203A09323031E
:100AE000B093240340E050E06CE572E440932503AA
:100AF00050932603609327037093280341E050E04E
:100B000060E772E44093290350932A0360932B0318
:100B100070932C0380932D0390932E03A0932F03A7
:100B2000B09330030895CF93DF93CDB7DEB76597C9
:100B30000FB6F894DEBF0FBECDBF789484B5826047
:100B400084BD84B5816084BD85B5826085BD85B571
:100B5000816085BD80916E00816080936E001092EF
:100B6000810080918100826080938100809181006A
:100B700081608093810080918000816080938000FB
:100B80008091B10084608093B1008091B000816059
:100B90008093B00080919100826080939100809159
:100BA000910081608093910080919000816080939A
:100BB00090008091A10082608093A1008091A100AB
:100BC00081608093A1008091A00081608093A0004B
:100BD00080912101826080932101809121018160B7
:100BE0008093210180912001816080932001809178
:100BF0007A00846080937A0080917A00826080938A
:100C00007A0080917A00816080937A0080917A00E6
:100C1000806880937A001092C100E0919804F0916E
:100C20009904A089B18982E08C93A485B5851C9232
:100C3000A685B7858FE38C93108EA489B58986E04D
:100C40008C93A289B3898C9180618C93A289B3899A
:100C50008C9188608C93A289B3898C9180688C93E5
:100C60000288F389E02D80818F7D808310920A04B1
:100C700010920904109208041092110410921004AA
:100C800010920F0410920E04109297041092140404
:100C9000109213041092120410921504109216046C
:100CA0008091070481708260816080930704809145
:100CB000370387FD06C061E0DDDC60E0809137032B
:100CC0005DDC81E08093320320913803222331F1EF
:100CD0000091390310913A03215049F030E040E08F
:100CE00050E06FEF7FEF80E090E07FD202C020E025
:100CF00030E0F8014091350350913603CF01801B5D
:100D0000910B8417950740F44081429FC001439F97
:100D1000900D11249193EECF109238030FED12E055
:100D200042E7E42E42E0F42ED701DC90B2E0EB0E75
:100D3000F11C60E08D2D9EDC8D2DD8DCBC01990F5F
:100D4000880B990B24D3F80161937193819391934C
:100D50008F01F2E0073F1F0739F78FB7F894009132
:100D600093021091940220919502309196028FBFC8
:100D70000093110310931203209313033093140371
:100D80001092150310921603109217031092180375
:100D900061E08DE06FDC2FB7F89480919302909121
:100DA0009402A0919502B09196022FBF1C012D01D3
:100DB0009C01A20160E070E080E090E0A09011034F
:100DC000B0901203C0901303D0901403E090150369
:100DD000F090160300911703109118033AD2F22FE6
:100DE000E32FA0E03FD21CF424D2F22FE32FFA87A6
:100DF000EB8720921103309212034092130350921A
:100E000014031092150310921603109217031092F8
:100E1000180380910F03909110032A853B85821B54
:100E2000930B97FF02C080E090E0909310038093B3
:100E30000F0387ECC82E82E0D82E97E9292E92E086
:100E4000392E2FEAE22E22E0F22E89E193E0998BEF
:100E5000888BA2E1B2E0BD87AC873FED832E32E004
:100E6000932EE2E7F2E0FF87EE87A12CB12CAE854E
:100E7000BF858C911296BF87AE8738DCBC01990F75
:100E8000880B990B84D22B013C0120E030E040E03C
:100E90005FE3F401608171818281938108D36A8B61
:100EA0007B8B8C8B9D8B20E030E040E05FE3C301C7
:100EB000B201FDD29B01AC016A897B898C899D8935
:100EC00000D2D4016D937D938D939C931397F6017B
:100ED000008111812A853B85021B130B17FF02C07D
:100EE00000E010E0D6010D931C93A3019201E8D11C
:100EF0002B013C0120E030E0A901D5D2181624F0E6
:100F000077FA709477F87094E889F9892191319192
:100F100041915191F98BE88BC301B201C4D21816EB
:100F20009CF5012BB1F5EFE7F0E0D701ED93FC93D1
:100F3000E4E6F0E0D601ED93FC9322E830E0309354
:100F4000100320930F03612C712C00E010E0EC855E
:100F5000FD85E60DF71D408151816281738180918D
:100F60003303909134030817190710F4C80181D98D
:100F70000F5F1F4F34E0630E711C0430110539F709
:100F800061E08DE0FBDA05C0012B19F4D7011D9259
:100F90001C9280910F0390911003892BB9F400E00B
:100FA00010E080913303909134030817190730F44F
:100FB00042E058E064E070E0C8015BD90F5F1F4F6A
:100FC0000430110571F760E08DE0D8DAF701008197
:100FD0001181D1018D919C9180179107B9F1F50193
:100FE000EA5FFD4F708080910904803979F0B0E9A3
:100FF000B09309048091980490919904DC01ED91DB
:10100000FC910190F081E02D60E9199580919804A0
:1010100090919904DC01ED91FC91672D6F7701901F
:10102000F081E02D19958091980490919904DC014C
:10103000ED91FC91602F6F770190F081E02D199573
:10104000F70180819181D1018D939C93B2E0AB0E29
:10105000B11CE4E08E0E911CF2E0CF0ED11C22E018
:10106000220E311C32E0E30EF11C8C859D854096EA
:101070009D878C879CE0A916B10409F0F8CE809179
:10108000390390913A03892B09F49FC04EDB0091FC
:101090003F03109140032091410330914203DC0152
:1010A000CB01801B910BA20BB30BC297A105B1051D
:1010B00068F3F89480913503909136039A8389837D
:1010C000E0913903F0913A03DF011196808189871D
:1010D00090913103E0914303F091440380914503E3
:1010E000992309F42EC09081982B98879081809540
:1010F00089238F838F818C8388E08B8358856F81D0
:1011000049853B812C8189819A81508347FD252F18
:101110003A952083262F39F0441F00C000006083D9
:10112000000000C0F2CF38E04D91608300000197CD
:1011300061F7F0934403E093430349873B832C8397
:1011400038C09081982B98879081809589238F83D0
:101150008F818E8388E08D8358856F8149853D819D
:101160002E8189819A81508347FD252F00C000C0C0
:10117000208300C000C000C000C000C06083000029
:10118000262F3A9541F0441F000000C000C000C067
:1011900000C000C0E8CF38E04D9100C0608300C0BF
:1011A000019709F7F0934403E093430349873D8394
:1011B0002E839A8389837894B8DA60933F0370937F
:1011C00040038093410390934203A0D9E4CD8091E2
:1011D000390390913A03009709F085D28091370343
:1011E00087FD02C060E046CA0895052E97FB16F4FD
:1011F00000940FD057FD05D041D007FC02D046F433
:1012000008C050954095309521953F4F4F4F5F4F07
:10121000089590958095709561957F4F8F4F9F4F62
:101220000895EE0FFF1F881F8BBF0790F691E02DEA
:10123000199460957095809590953095409550954E
:1012400021953F4F4F4F5F4F6F4F7F4F8F4F9F4FB6
:1012500008952A193B094C095D096E097F09800B25
:10126000910B08950024A7FD00942A17300540052E
:10127000500560057005800590050895A1E21A2EBD
:10128000AA1BBB1BFD010DC0AA1FBB1FEE1FFF1F2A
:10129000A217B307E407F50720F0A21BB30BE40B7A
:1012A000F50B661F771F881F991F1A9469F76095C1
:1012B0007095809590959B01AC01BD01CF0108957B
:1012C0005058BB27AA270ED0B4C0A5D030F0AAD062
:1012D00020F031F49F3F11F41EF49AC00EF4E09513
:1012E000E7FB90C0E92FB6D080F3BA176207730707
:1012F0008407950718F071F49EF5CEC00EF4E095C2
:101300000B2EBA2FA02D0B01B90190010C01CA01BF
:10131000A0011124FF27591B99F0593F50F4503E6A
:1013200068F11A16F040A22F232F342F4427585F5C
:10133000F3CF469537952795A795F0405395C9F774
:101340007EF41F16BA0B620B730B840BBAF091502C
:10135000A1F0FF0FBB1F661F771F881FC2F70EC0CB
:10136000BA0F621F731F841F48F48795779567959E
:10137000B795F7959E3F08F0B3CF9395880F08F087
:101380009927EE0F979587950895E89409C097FBE4
:101390003EF490958095709561957F4F8F4F9F4F4C
:1013A0009923A9F0F92F96E9BB279395F695879590
:1013B00077956795B795F111F8CFFAF4BB0F11F453
:1013C00060FF1BC06F5F7F4F8F4F9F4F16C08823FA
:1013D00011F096E911C0772321F09EE8872F762F30
:1013E00005C0662371F096E8862F70E060E02AF071
:1013F0009A95660F771F881FDAF7880F969587955D
:1014000097F9089597F99F6780E870E060E0089584
:101410009FEF80EC089500240A941616170618060C
:101420000906089500240A941216130614060506E8
:101430000895092E0394000C11F4882352F0BB0F79
:1014400040F4BF2B11F460FF04C06F5F7F4F8F4FDC
:101450009F4F089557FD9058440F551F59F05F3F17
:1014600071F04795880F97FB991F61F09F3F79F0C6
:1014700087950895121613061406551FF2CF469548
:10148000F1DF08C0161617061806991FF1CF8695CA
:101490007105610508940895E894BB2766277727AE
:1014A000CB0197F9089566D008F48FEF08950BD01B
:1014B000C0CFB1DF28F0B6DF18F0952309F0A2CF36
:1014C000A7CF1124EACFC6DFA0F3959FD1F3950FE4
:1014D00050E0551F629FF001729FBB27F00DB11DB8
:1014E000639FAA27F00DB11DAA1F649F6627B00D48
:1014F000A11D661F829F2227B00DA11D621F739F31
:10150000B00DA11D621F839FA00D611D221F749F3E
:101510003327A00D611D231F849F600D211D822F85
:10152000762F6A2F11249F5750408AF0E1F08823CC
:101530004AF0EE0FFF1FBB1F661F771F881F9150D9
:101540005040A9F79E3F510570F05CCFA6CF5F3F9A
:10155000ECF3983EDCF3869577956795B795F7950C
:10156000E7959F5FC1F7FE2B880F911D9695879594
:1015700097F90895990F0008550FAA0BE0E8FEEFC0
:1015800016161706E807F907C0F012161306E40747
:10159000F50798F0621B730B840B950B39F40A2640
:1015A00061F0232B242B252B21F408950A2609F41E
:1015B000A140A6958FEF811D811D0895CF93DF93E4
:1015C0008230910510F482E090E0E0919C04F0916B
:1015D0009D0420E030E0C0E0D0E0309711F1408180
:1015E000518148175907C0F04817590761F48281A3
:1015F0009381209719F09B838A832BC090939D043D
:1016000080939C0426C02115310519F04217530719
:1016100018F49A01BE01DF01EF010280F381E02D91
:10162000DCCF2115310509F1281B390B2430310598
:1016300090F412968D919C9113976115710521F08C
:10164000FB019383828304C090939D0480939C0448
:10165000FD01329644C0FD01E20FF31F8193919387
:10166000225031092D933C933AC020919A04309135
:101670009B04232B41F4209102023091030230930A
:101680009B0420939A0420910002309101022115BD
:10169000310541F42DB73EB7409104025091050247
:1016A000241B350BE0919A04F0919B04E217F30799
:1016B000A0F42E1B3F0B2817390778F0AC014E5FC2
:1016C0005F4F2417350748F04E0F5F1F50939B0460
:1016D00040939A048193919302C0E0E0F0E0CF013F
:1016E000DF91CF9108950F931F93CF93DF930097CE
:1016F00009F48CC0FC0132971382128200919C0481
:1017000010919D040115110581F420813181820F12
:10171000931F20919A0430919B042817390779F57B
:10172000F0939B04E0939A0471C0D80140E050E02C
:10173000AE17BF0750F412962D913C911397AD014F
:101740002115310509F1D901F3CF9D01DA01338368
:10175000228360817181860F971F8217930769F436
:10176000EC0128813981260F371F2E5F3F4F3183CF
:1017700020838A819B8193838283452B29F4F09374
:101780009D04E0939C0442C01396FC93EE93129741
:10179000ED01499159919E01240F351FE217F3077E
:1017A00071F480819181840F951F029611969C930C
:1017B0008E938281938113969C938E931297E0E08F
:1017C000F0E0D80112968D919C911397009719F033
:1017D000F8018C01F6CF8D919C9198012E5F3F4FBF
:1017E000820F931F20919A0430919B042817390788
:1017F00069F4309729F410929D0410929C0402C061
:101800001382128210939B0400939A04DF91CF916C
:101810001F910F91089581E090E0F89400C011E0CD
:10182000C8E0D1E000E005C0802FFE01FADC21967F
:10183000011DC930D10780E00807B1F7F894FFCF48
:1018400000009E04800024002500260027002800B8
:101850002900FFFF0000FFFF0000FFFF0000FFFF67
:10186000000005FFDF0005FFDF0005FFDF0005FFCB
:10187000DF0032FF960032FF960032FF960032FF03
:10188000960032FF960032FF960032FF960032FF3C
:101890009600FF00FF0040FF200040FF200040FFB7
:1018A0002000FFFF0000FF00FF0000FFFF00FF001F
:1018B0000000360038003A003E00400042000000C0
:0E18C00000001F029C01E901C701DB01650267
:020000023000CC
:10E000000D9489F10D94B2F10D94B2F10D94B2F129
:10E010000D94B2F10D94B2F10D94B2F10D94B2F1F0
:10E020000D94B2F10D94B2F10D94B2F10D94B2F1E0
:10E030000D94B2F10D94B2F10D94B2F10D94B2F1D0
:10E040000D94B2F10D94B2F10D94B2F10D94B2F1C0
:10E050000D94B2F10D94B2F10D94B2F10D94B2F1B0
:10E060000D94B2F10D94B2F10D94B2F10D94B2F1A0
:10E070000D94B2F10D94B2F10D94B2F10D94B2F190
:10E080000D94B2F10D94B2F10D94B2F10D94B2F180
:10E090000D94B2F10D94B2F10D94B2F10D94B2F170
:10E0A0000D94B2F10D94B2F10D94B2F10D94B2F160
:10E0B0000D94B2F10D94B2F10D94B2F10D94B2F150
:10E0C0000D94B2F10D94B2F10D94B2F10D94B2F140
:10E0D0000D94B2F10D94B2F10D94B2F10D94B2F130
:10E0E0000D94B2F141546D656761323536300041AF
:10E0F000726475696E6F206578706C6F72657220DE
:10E1000073746B3530305632206279204D4C530099
:10E11000426F6F746C6F616465723E004875683F52
:10E1200000436F6D70696C6564206F6E203D200048
:10E130004350552054797065202020203D20005FF9
:10E140005F4156525F415243485F5F3D2000415658
:10E1500052204C696243205665723D20004743437C
:10E160002056657273696F6E203D20004350552024
:10E1700049442020202020203D20004C6F7720663D
:10E18000757365202020203D20004869676820665F
:10E190007573652020203D200045787420667573D6
:10E1A00065202020203D20004C6F636B2066757336
:10E1B000652020203D20004D617220203720323024
:10E1C000313300312E362E3800342E332E350056A2
:10E1D00023202020414444522020206F7020636F70
:10E1E00064652020202020696E73747275637469E1
:10E1F0006F6E2061646472202020496E74657272B3
:10E20000757074006E6F20766563746F7200726A49
:10E210006D702020006A6D70200057686174207056
:10E220006F72743A00506F7274206E6F7420737541
:10E2300070706F72746564004D7573742062652030
:10E2400061206C6574746572002000577269747483
:10E25000696E672045450052656164696E672045B7
:10E26000450045452065727220636E743D00504F35
:10E27000525400303D5A65726F2061646472003FF1
:10E280003D43505520737461747300403D454550C3
:10E29000524F4D207465737400423D426C696E6B41
:10E2A000204C454400453D44756D70204545505215
:10E2B0004F4D00463D44756D7020464C415348001B
:10E2C000483D48656C70004C3D4C69737420492F83
:10E2D0004F20506F72747300513D51756974005234
:10E2E0003D44756D702052414D00563D73686F7707
:10E2F00020696E7465727275707420566563746FF0
:10E30000727300593D506F727420626C696E6B00BD
:10E310002A0011241FBECFEFD1E2DEBFCDBF01E046
:10E320000CBF12E0A0E0B2E0EEE1FDEF03E00BBFB6
:10E3300002C007900D92A030B107D9F712E0A0E01B
:10E34000B2E001C01D92AE30B107E1F70F9460F367
:10E350000D948DFE01E20EBF0FEF0DBF11241FBE05
:10E360000D9460F30D9400F020E030E040ED57E0B4
:10E3700005C0FA013197F1F72F5F3F4F2817390792
:10E38000C0F308959C01260F311DC901A0E0B0E043
:10E390002F5F3F4FABBFFC018791882361F08093D3
:10E3A000C6008091C00086FFFCCF8091C0008064D1
:10E3B0008093C000EACF08958DE08093C6008091DD
:10E3C000C00086FFFCCF8091C00080648093C000B5
:10E3D0008AE08093C6008091C00086FFFCCF8091C8
:10E3E000C00080648093C00008950F94C2F10F9420
:10E3F000DCF10895FC019081992359F09093C600B7
:10E400008091C00086FFFCCF8091C0008064809323
:10E41000C0003196992379F70895282F982F929567
:10E420009F70892F805D8A3308F0895F8093C600D2
:10E430008091C00086FFFCCF8091C00080648093F3
:10E44000C000822F8F70982F905D9A3308F0995FEB
:10E450009093C6008091C00086FFFCCF8091C000E1
:10E4600080648093C00008959C01FB01853691056E
:10E470001CF46330710594F0C90164E670E00F94F8
:10E480002EFE605D7F4F6093C6008091C00086FFC6
:10E49000FCCF8091C00080648093C0002B30310598
:10E4A00014F43297B4F0C90164E670E00F942EFEC4
:10E4B0006AE070E00F942EFE605D7F4F6093C600AF
:10E4C0008091C00086FFFCCF8091C0008064809363
:10E4D000C000C9016AE070E00F942EFEC0968093E0
:10E4E000C6008091C00086FFFCCF8091C000806490
:10E4F0008093C00008951F93182F8EE692EE60E07F
:10E500000F94C2F11093C6008091C00086FFFCCF2B
:10E510008091C00080648093C0000F94DCF11F9153
:10E5200008952F923F924F925F926F927F928F92B7
:10E530009F92AF92BF92CF92DF92EF92FF920F9392
:10E540001F93DF93CF93CDB7DEB762970FB6F894E2
:10E55000DEBF0FBECDBF382E622ECA01DB015C01CB
:10E560006D01772420E2222E2E010894411C511CBB
:10E570008BC081E0A81680E0B80681E0C80680E084
:10E58000D80628F0C601AA27BB270F940DF2BB2797
:10E59000AD2D9C2D8B2D0F940DF28A2D0F940DF225
:10E5A0002092C6008091C00086FFFCCF8091C00001
:10E5B00080648093C0009DE29093C6008091C0006B
:10E5C00086FFFCCF8091C00080648093C0002092C1
:10E5D000C6008091C00086FFFCCF8091C00080649F
:10E5E0008093C00019828601750188249924A1E0D6
:10E5F0003A1651F03A1620F0B2E03B1661F409C029
:10E600000BBFF701779007C0C7010F9477FE782EF4
:10E6100002C0F7017080872D0F940DF22092C60082
:10E620008091C00086FFFCCF8091C0008064809301
:10E63000C000872D8052F401EF70F0708F3520F408
:10E64000E40DF51D708204C0E40DF51D8EE280839B
:10E650000894E11CF11C011D111D0894811C911CE2
:10E6600090E18916910409F0C2CF80E190E0A0E02A
:10E67000B0E0A80EB91ECA1EDB1E198AC2010F9493
:10E68000FAF10F94DCF16A94662009F072CF629679
:10E690000FB6F894DEBF0FBECDBFCF91DF911F91B3
:10E6A0000F91FF90EF90DF90CF90BF90AF909F9031
:10E6B0008F907F906F905F904F903F902F90089534
:10E6C0002F923F924F925F926F927F928F929F9282
:10E6D000AF92BF92CF92DF92EF92FF920F931F9370
:10E6E000DF93CF93CDB7DEB7CD53D1400FB6F894BB
:10E6F000DEBF0FBECDBF01E20EBF0FEF0DBF94B75F
:10E70000F894A89514BE80916000886180936000A1
:10E7100010926000789493FF05C0E0910002F091A0
:10E7200001021995279A2F9A8091C00082608093E8
:10E73000C00080E18093C40088E18093C1000000A4
:10E74000EE24FF24870144E0A42EB12CCC24DD2448
:10E7500024C0C5010197F1F70894E11CF11C011DCB
:10E76000111D21E2E2162EE4F20620E0020720E06D
:10E77000120718F031E0C32ED12CC801B70127ECE5
:10E780003BE140E050E00F9441FE611571058105C9
:10E79000910519F485B1805885B98091C00087FD35
:10E7A00003C0C114D104A9F2A6014F5F5F4FC25E3E
:10E7B000DE4F59834883CE51D140C25EDE4F8881FF
:10E7C0009981CE51D140019711F00D9410FEC05D9A
:10E7D000DE4F19821882C053D14060E0C15DDE4F28
:10E7E0001882CF52D14088249924C35DDE4F19820C
:10E7F0001882CD52D140C05EDE4F188219821A8233
:10E800001B82C052D140CE5CDE4F188219821A8220
:10E810001B82C253D140EE24FF2487010BBFF701B6
:10E8200007911691C45CDE4F19830883CC53D14005
:10E830000D940BFEC25EDE4F28813981CE51D1404E
:10E840002130310509F52091C600C25EDE4F1982E4
:10E850001882CE51D14022C02F5F3F4F4F4F5F4FA4
:10E86000213082E138078AE7480780E0580780F0C6
:10E87000C45CDE4FE881F981CC53D140EF5FFF4F9C
:10E8800019F0EE27FF27099420E030E040E050E047
:10E890008091C00087FFE0CF2091C600C35DDE4FAE
:10E8A00048815981CD52D1404F5F5F4FC35DDE4FEC
:10E8B00059834883CD52D140213209F063C64A3092
:10E8C000510508F05FC60894811C911C53E0851621
:10E8D000910409F059C600E010E018C081E280936D
:10E8E000C6008091C00086FFFCCF8091C00080648C
:10E8F0008093C0002F5F3F4F2931310579F70F9486
:10E90000DCF10F5F1F4F0530110519F020E030E0FA
:10E91000E5CF10920A0210920B0210920C02109294
:10E920000D02109206021092070210920802109235
:10E930000902109202021092030210920402109235
:10E9400005028FEE90EE60E00F94F5F180E191EE1C
:10E9500060E00F94C2F18091C00087FFFCCF9091DE
:10E96000C600903608F09F759032B8F09093C600BC
:10E970008091C00086FFFCCF8091C00080648093AE
:10E98000C000A0E2A093C6008091C00086FFFCCF2B
:10E990008091C00080648093C000983409F4D7C18E
:10E9A0009934B8F4923409F459C1933458F490333B
:10E9B00019F1903308F4E3C59F33A1F1903409F0C5
:10E9C000DEC5BDC0953409F470C1963409F0D7C5D1
:10E9D00098C1923509F42BC2933538F49C3409F46C
:10E9E000F5C1913509F0CBC518C2963509F445C279
:10E9F000993509F0C4C567C483E792EE62E00F94CD
:10EA0000F5F110920602109207021092080210927D
:10EA1000090210920A0210920B0210920C0210923C
:10EA20000D0213C18FE792EE62E00F94F5F18FEEC5
:10EA300090EE60E00F94F5F181E291EE60E00F94CA
:10EA4000C2F187EB91EE60E00F94F5F180E391EE77
:10EA500060E00F94C2F184EE90EE60E00F94F5F167
:10EA60008FE391EE60E00F94C2F186E090E061E008
:10EA700070E00F9434F20F94DCF18DE591EE60E0DC
:10EA80000F94C2F189EC91EE60E00F94F5F18EE401
:10EA900091EE60E00F94C2F183EC91EE60E00F9490
:10EAA000F5F18CE691EE60E00F94C2F18EE10F94E7
:10EAB0000DF288E90F940DF281E00F940DF20F949E
:10EAC000DCF18BE791EE60E00F94C2F119E0E0E039
:10EAD000F0E010935700E4918E2F0F940DF20F94F5
:10EAE000DCF18AE891EE60E00F94C2F1E3E0F0E03F
:10EAF00010935700E4918E2F0F940DF20F94DCF1D8
:10EB000089E991EE60E00F94C2F1E2E0F0E0109349
:10EB10005700E4918E2F0F940DF20F94DCF188EAE8
:10EB200091EE60E00F94C2F1E1E0F0E01093570045
:10EB30001491812F0F940DF20F94DCF107CF8BE825
:10EB400092EE62E00F94F5F18BE492EE60E00F94A8
:10EB5000F5F10F94DCF100E010E019C0C8016F2D51
:10EB60000F947FFEFF2031F489E492EE60E00F9471
:10EB7000C2F10BC0F092C6008091C00086FFFCCFAE
:10EB80008091C00080648093C0000F5F1F4FC80158
:10EB900081519F41A0E0B0E0ABBFFC01F790BAE229
:10EBA000FB1621F0E2E000301E07C1F60F94DCF105
:10EBB0000F94DCF187E592EE60E00F94F5F10F948D
:10EBC000DCF1CC24DD2400E010E01EC0C8010F946D
:10EBD00077FEF82E882331F489E492EE60E00F94FA
:10EBE000C2F10BC08093C6008091C00086FFFCCFAD
:10EBF0008091C00080648093C000FE1419F00894D6
:10EC0000C11CD11C0F5F1F4FC80181519F41A0E063
:10EC1000B0E0ABBFFC01E790FAE2EF1621F022E092
:10EC20000030120799F60F94DCF10F94DCF182E6C4
:10EC300092EE60E00F94C2F1C60161E070E00F94C3
:10EC400034F20F94DCF10F94DCF110920202109276
:10EC50000302109204021092050278CE89E992EE26
:10EC600062E00F94F5F1279A2F9A16C02F9880E052
:10EC700090E0E0EDF7E03197F1F7019684369105E9
:10EC8000C1F72F9A80E090E0E0EDF7E03197F1F7DF
:10EC9000019684369105C1F78091C00087FFE6CFC9
:10ECA0008091C00087FFFCCF64C485EA92EE62E0E9
:10ECB0000F94F5F140910202509103026091040219
:10ECC0007091050281E020E10F9491F2809102029F
:10ECD00090910302A0910402B091050280509F4FD1
:10ECE000AF4FBF4F8093020290930302A0930402A0
:10ECF000B093050280509041A040B04008F426CE69
:10ED0000A4CF83EB92EE62E00F94F5F140910602FE
:10ED100050910702609108027091090280E020E1A1
:10ED20000F9491F28091060290910702A09108023F
:10ED3000B091090280509F4FAF4FBF4F80930602A2
:10ED400090930702A0930802B0930902FFCD80ECD4
:10ED500092EE62E00F94F5F183E792EE60E00F949B
:10ED6000F5F18FE792EE60E00F94F5F18BE892EE0B
:10ED700060E00F94F5F189E992EE60E00F94F5F10F
:10ED800085EA92EE60E00F94F5F183EB92EE60E09D
:10ED90000F94F5F180EC92EE60E00F94F5F187ECC2
:10EDA00092EE60E00F94F5F188ED92EE60E00F9442
:10EDB000F5F18FED92EE60E00F94F5F18AEE92EEB0
:10EDC00060E00F94F5F183E093EEBDCD87EC92EE19
:10EDD00062E00F94F5F181E40F947BF282E40F94EA
:10EDE0007BF283E40F947BF284E40F947BF285E45E
:10EDF0000F947BF286E40F947BF287E40F947BF20E
:10EE000088E40F947BF28AE40F947BF28BE40F94F6
:10EE10007BF28CE40F947BF299CD88ED92EE62E068
:10EE20000F94F5F1772473948824992409C48FED05
:10EE300092EE62E00F94F5F140910A0250910B02BC
:10EE400060910C0270910D0282E020E10F9491F22A
:10EE500080910A0290910B02A0910C02B0910D02D8
:10EE600080509F4FAF4FBF4F80930A0290930B0289
:10EE7000A0930C02B0930D0269CD8AEE92EE62E08F
:10EE80000F94F5F184EE90EE60E00F94F5F18FECC5
:10EE900091EE60E00F94F5F1662477244301CC5D98
:10EEA000DE4F19821882C452D140D401C301B695F5
:10EEB000A79597958795CA5DDE4F88839983AA8326
:10EEC000BB83C652D140CC5DDE4FA881B981C4520C
:10EED000D1401196CC5DDE4FB983A883C452D14096
:10EEE000CD0162E070E00F9434F2B0E2B093C6005E
:10EEF0008091C00086FFFCCF8091C0008064809329
:10EF0000C000EDE2E093C6008091C00086FFFCCF18
:10EF10008091C00080648093C000F0E2F093C6004E
:10EF20008091C00086FFFCCF8091C00080648093F8
:10EF3000C000CA5DDE4FE880F9800A811B81C6529D
:10EF4000D140BB27A12F902F8F2D0F940DF2CA5DBA
:10EF5000DE4F8881C652D1400F940DF2B0E2FB2EF5
:10EF6000F092C6008091C00086FFFCCF8091C00067
:10EF700080648093C0000DE30093C6008091C000C0
:10EF800086FFFCCF8091C00080648093C00010E2B7
:10EF90001093C6008091C00086FFFCCF8091C00016
:10EFA00080648093C0008BBEF3012791C65DDE4F65
:10EFB0002883CA52D140A22EBB24CC24DD2408943D
:10EFC000611C711C811C911C8BBEF3018791282E42
:10EFD0003324442455240894611C711C811C911C09
:10EFE0008BBEF3013791C55DDE4F3883CB52D140E4
:10EFF0000894611C711C811C911C8BBEF30147910C
:10F00000C45DDE4F4883CC52D140ADEFEA2EAFEF66
:10F01000FA2EAFEF0A2FAFEF1A2F6E0C7F1C801E57
:10F02000911E142D032DF22CEE24EA0CFB1C0C1D5A
:10F030001D1D0F940DF220E22093C6008091C000A8
:10F0400086FFFCCF8091C00080648093C000C65DC5
:10F05000DE4F8881CA52D1400F940DF230E23093D6
:10F06000C6008091C00086FFFCCF8091C000806404
:10F070008093C000C45DDE4F8881CC52D1400F9494
:10F080000DF240E24093C6008091C00086FFFCCFA5
:10F090008091C00080648093C000C55DDE4F888190
:10F0A000CB52D1400F940DF250E25093C6008091A4
:10F0B000C00086FFFCCF8091C00080648093C000B8
:10F0C0008FEFE8168FEFF80680E0080780E018075A
:10F0D00031F484E092EE60E00F94C2F1DFC0D80119
:10F0E000C7018070907CA070B0708050904CA040A0
:10F0F000B040D1F52FEF3FE340E050E0E222F322B1
:10F1000004231523CA5DDE4FA880B980CA80DB8046
:10F11000C652D140AE0CBF1CC01ED11EAA0CBB1CD7
:10F12000CC1CDD1C8EE092EE60E00F94C2F1BB2798
:10F13000A12F902F8F2D0F940DF28E2D0F940DF285
:10F1400030E23093C6008091C00086FFFCCF8091F2
:10F15000C00080648093C0004EE34093C60080915D
:10F16000C00086FFFCCF87C08EE09EEFA0E0B0E03D
:10F17000E822F9220A231B239CE0E91694E9F90608
:10F1800090E0090790E0190709F088C0C45DDE4FE0
:10F19000A881CC52D140EA2EFF2400E010E0102FCD
:10F1A0000F2DFE2CEE24C55DDE4FB881CB52D14031
:10F1B000EB0EF11C011D111DD601C501817090706F
:10F1C000A070B070DC0199278827E80EF91E0A1F8D
:10F1D0001B1F20EF30E040E050E0A222B322C42207
:10F1E000D52241E1AA0CBB1CCC1CDD1C4A95D1F7F1
:10F1F000EA0CFB1C0C1D1D1D81E090E0A0E0B0E0BE
:10F20000282239224A225B2235E1220C331C441C7D
:10F21000551C3A95D1F7E20CF31C041D151D57013E
:10F220006801AA0CBB1CCC1CDD1C85E192EE60E0E1
:10F230000F94C2F1C801AA27BB270F940DF2BB2778
:10F24000A12F902F8F2D0F940DF28E2D0F940DF274
:10F2500090E29093C6008091C00086FFFCCF809121
:10F26000C00080648093C000AEE3A093C60080918C
:10F27000C00086FFFCCF8091C00080648093C000F6
:10F28000C601AA27BB270F940DF2BB27AD2D9C2DDD
:10F290008B2D0F940DF28A2D0F940DF20F94DCF14B
:10F2A000CC5DDE4FE881F981C452D140F99709F471
:10F2B0004DCBF4E0EF2EF12C012D112D6E0C7F1CA7
:10F2C000801E911EF2CD83E093EE62E00F94F5F183
:10F2D0008AE192EE60E00F94C2F18091C00087FF56
:10F2E000FCCF1091C6001F751093C6008091C0001E
:10F2F00086FFFCCF8091C00080648093C0000F9493
:10F30000DCF1812F81548A3108F036C1163409F4BA
:10F3100095C0173490F4133409F44EC0143430F40B
:10F320001134F1F0123409F01DC130C0143409F465
:10F3300059C0153409F016C16BC01A3409F4C4C0A1
:10F340001B3438F4173409F48FC0183409F00AC19B
:10F35000A1C01B3409F4D2C01C3409F003C1E8C0B9
:10F360008FEF81B90DC082B1809582B980E090E0C5
:10F37000E0EDF7E03197F1F70196883C9105C1F790
:10F380008091C00087FFEFCF12B8EFC08FEF84B934
:10F390000DC085B1809585B980E090E0E0EDF7E0A3
:10F3A0003197F1F70196883C9105C1F78091C00033
:10F3B00087FFEFCF15B8D9C08FEF87B90DC088B1DF
:10F3C000809588B980E090E0E0EDF7E03197F1F7C3
:10F3D0000196883C9105C1F78091C00087FFEFCF6F
:10F3E00018B8C3C08FEF8AB90DC08BB180958BB9A7
:10F3F00080E090E0E0EDF7E03197F1F70196883C8E
:10F400009105C1F78091C00087FFEFCF1BB8ADC059
:10F410008FEF8DB90DC08EB180958EB980E090E0F0
:10F42000E0EDF7E03197F1F70196883C9105C1F7DF
:10F430008091C00087FFEFCF1EB897C08FEF80BBD1
:10F440000DC081B3809581BB80E090E0E0EDF7E0F6
:10F450003197F1F70196883C9105C1F78091C00082
:10F4600087FFEFCF11BA81C08FEF83BB0DC084B38C
:10F47000809584BB80E090E0E0EDF7E03197F1F714
:10F480000196883C9105C1F78091C00087FFEFCFBE
:10F4900014BA6BC08FEF809301010FC080910201FD
:10F4A00080958093020180E090E0E0EDF7E03197F5
:10F4B000F1F70196883C9105C1F78091C00087FF64
:10F4C000EDCF1092020151C08FEF809304010FC065
:10F4D0008091050180958093050180E090E0E0ED4A
:10F4E000F7E03197F1F70196883C9105C1F78091DB
:10F4F000C00087FFEDCF1092050137C08FEF8093DA
:10F5000007010FC08091080180958093080180E079
:10F5100090E0E0EDF7E03197F1F70196883C910536
:10F52000C1F78091C00087FFEDCF109208011DC088
:10F530008FEF80930A010FC080910B01809580931B
:10F540000B0180E090E0E0EDF7E03197F1F70196F4
:10F55000883C9105C1F78091C00087FFEDCF1092E4
:10F560000B0103C085E292EEEEC98091C00087FFD7
:10F57000FCCF8091C600EAC988E392EEE4C98CE131
:10F5800091EEE1C988249924933011F1943028F444
:10F59000913089F09230B8F408C0953061F195301F
:10F5A000F0F0963009F048C043C02B3109F042C951
:10F5B00091E06BE13FC96227C15DDE4F2883CF52E6
:10F5C000D14092E037C9B22FA0E0622793E032C960
:10F5D000822F90E0A82BB92B622794E02BC92E3004
:10F5E00009F039C3622795E0C05DDE4F19821882A9
:10F5F000C053D1401FC9E1E0F0E0EC0FFD1FC05D3A
:10F60000DE4F08811981C053D140E00FF11F2083E4
:10F610000F5F1F4FC05DDE4F19830883C053D14079
:10F6200062270A171B0709F005C9D80196E002C92D
:10F63000261709F010C303C0973009F0FBC87724E0
:10F640009981933109F412C19431C8F4963009F4C8
:10F65000D8C0973050F4923009F406C1933009F4C1
:10F660006DC0913009F059C253C0913109F477C08F
:10F67000923108F0BBC0903109F04FC2F5C098310B
:10F6800009F487C0993150F4953109F4EFC09531F0
:10F6900008F4C6C1963109F040C2C2C19A3109F4DA
:10F6A0006CC09A3108F491C09B3109F45BC09D3164
:10F6B00009F033C29D81903359F48F81882311F46E
:10F6C0009EE11CC0813011F091E018C098E916C08D
:10F6D000892F807591F0903539F4E0E0F0E089E011
:10F6E0008093570094910AC0983539F4E3E0F0E034
:10F6F00089E080935700949101C090E01A821B82A8
:10F700008D818C831D829E831F8227E030E009C299
:10F710001A8288E08B8381E48C8386E58D8382E581
:10F720008E8389E48F8383E5888780E589878FE5E9
:10F730008A8782E38B872BE030E0F3C18A818139AD
:10F7400041F0823941F0803911F48FE005C080E04A
:10F7500003C082E001C08AE01A828B8344C0772410
:10F76000739482C08D81882311F48EE12CC0813086
:10F7700011F081E028C088E926C01A82E1E0F0E0BB
:10F7800089E08093570084918B831C8224E030E0D1
:10F79000C8C18B81803589F48C81883039F4E2E0EE
:10F7A000F0E089E08093570084910DC0E0E0F0E044
:10F7B00089E080935700849106C0E3E0F0E089E09F
:10F7C0008093570084911A82DFCF8D81836C99E0FA
:10F7D000E1E0F0E0082E90935700E89507B600FCB2
:10F7E000FDCF1A821B8223E030E09BC180EC8A832C
:10F7F000CE5CDE4F188219821A821B82C253D1401E
:10F800008EC18A8190E0A0E0B0E0582F44273327D2
:10F8100022278B8190E0A0E0B0E0DC0199278827C7
:10F82000282B392B4A2B5B2B8D8190E0A0E0B0E098
:10F83000282B392B4A2B5B2B8C8190E0A0E0B0E089
:10F84000BA2FA92F982F8827282B392B4A2B5B2BCF
:10F85000220F331F441F551FC05EDE4F288339839C
:10F860004A835B83C052D1401A8259C13A81C95C34
:10F87000DE4F3883C753D140CA5CDE4F1882C6536F
:10F88000D1408B81C82EDD24CA5CDE4F488159816E
:10F89000C653D140C42AD52A933109F082C0CE5C28
:10F8A000DE4F88819981AA81BB81C253D1408050AB
:10F8B000904CA340B04030F583E0CE5CDE4FE88052
:10F8C000F9800A811B81C253D140F70100935B008C
:10F8D00080935700E89507B600FCFDCFCE5CDE4F65
:10F8E000088119812A813B81C253D14000501F4FAA
:10F8F0002F4F3F4FCE5CDE4F088319832A833B8313
:10F90000C253D140C05EDE4F488159816A817B81FC
:10F91000C052D140DE011B9631E08C9111962C91A2
:10F9200011971296C75CDE4F2883C953D140C85C3B
:10F93000DE4F1882C853D14090E0C85CDE4FE881AA
:10F94000F981C853D1408E2B9F2B0C01FA01609393
:10F950005B0030935700E89511244E5F5F4F6F4F67
:10F960007F4F0EEFE02E0FEFF02ECE0CDF1CC114F8
:10F97000D10499F685E0C05EDE4F088119812A81A5
:10F980003B81C052D140F80120935B008093570027
:10F99000E89507B600FCFDCF81E180935700E8951C
:10F9A00035C0C05EDE4F88819981AA81BB81C0527B
:10F9B000D140B695A795979587957C018601ABE0D8
:10F9C000AA2EB12CAC0EBD1E0BC0D5016D915D01F0
:10F9D000C7010F947FFE0894E11CF11C01501040F8
:10F9E0000115110591F7A60160E070E0440F551F65
:10F9F000661F771FC05EDE4FE880F9800A811B8199
:10FA0000C052D1404E0D5F1D601F711F1A82C05E33
:10FA1000DE4F488359836A837B83C052D1407FC0C5
:10FA2000FA80C55CDE4FF882CB53D140C65CDE4F16
:10FA30001882CA53D1408B81C82EDD24C65CDE4FAC
:10FA400008811981CA53D140C02AD12A1A828981DA
:10FA5000BE016D5F7F4F843121F59601C05EDE4FA0
:10FA6000E880F9800A811B81C052D1400BBFF701A9
:10FA700087919691DB018C9311969C936E5F7F4FDB
:10FA8000D801C7010296A11DB11DC05EDE4F88835B
:10FA90009983AA83BB83C052D14022503040F1F6F3
:10FAA00036C0C05EDE4F288139814A815B81C052F9
:10FAB000D1400894C108D108760100E010E0089414
:10FAC000C11CD11C0894E11CF11C011D111DE20E8A
:10FAD000F31E041F151F21BDBB27A52F942F832FB5
:10FAE00082BD2F5F3F4F4F4F5F4FF89A80B5DB01CC
:10FAF0008D93BD012E153F054007510761F7C05E8C
:10FB0000DE4F288339834A835B83C052D1409601FC
:10FB10002D5F3F4FFB01108204C080EC8A8322E0FE
:10FB200030E08BE18093C6008091C00086FFFCCF5F
:10FB30008091C00080648093C000C15DDE4FF88179
:10FB4000CF52D140F093C6008091C00086FFFCCF19
:10FB50008091C00080648093C000432F3093C60022
:10FB60008091C00086FFFCCF8091C00080648093AC
:10FB7000C000922F2093C6008091C00086FFFCCF6A
:10FB80008091C00080648093C0008EE08093C600A6
:10FB90008091C00086FFFCCF8091C000806480937C
:10FBA000C00065E1C15DDE4FE880CF52D1406E25D7
:10FBB00069276427FE01319610C090819093C6009A
:10FBC0008091C00086FFFCCF31968091C000806498
:10FBD0008093C0006927215030402115310569F715
:10FBE0006093C6008091C00086FFFCCF8091C0006A
:10FBF00080648093C00085B1805885B9772081F4F6
:10FC0000C15DDE4F0881CF52D1400F5FC15DDE4F35
:10FC10000883CF52D14090E0A0E0B0E00D941AF4F8
:10FC200027982F9880E090E020ED37E0F901319798
:10FC3000F1F7019684369105C9F700008091C00064
:10FC40008D7F8093C00081E180935700E895EE2777
:10FC5000FF270994FFCF90E00D941AF497FB092E2B
:10FC600007260AD077FD04D02ED006D000201AF443
:10FC7000709561957F4F0895F6F7909581959F4F08
:10FC80000895A1E21A2EAA1BBB1BFD010DC0AA1FDD
:10FC9000BB1FEE1FFF1FA217B307E407F50720F0F5
:10FCA000A21BB30BE40BF50B661F771F881F991F70
:10FCB0001A9469F760957095809590959B01AC01B9
:10FCC000BD01CF010895AA1BBB1B51E107C0AA1FAC
:10FCD000BB1FA617B70710F0A61BB70B881F991FED
:10FCE0005A95A9F780959095BC01CD010895F99991
:10FCF000FECF92BD81BDF89A992780B50895262F31
:10FD0000F999FECF1FBA92BD81BD20BD0FB6F89400
:0EFD1000FA9AF99A0FBE01960895F894FFCF63
:040000033000E000E9
:00000001FF
