:1000000008C1000035C1000033C1000031C100004B
:100010002FC100002DC100002BC1000029C100002C
:1000200027C1000025C1000023C1000021C100003C
:100030001FC100001DC100001BC1000019C100004C
:1000400017C1000015C1000013C1000011C100005C
:100050000FC100000DC100000BC100000CC3000067
:1000600007C10000D2C20000A7C2000001C1000009
:10007000FFC00000FDC00000FBC00000F9C0000090
:10008000F7C00000F5C00000F3C00000F1C00000A0
:10009000EFC00000EDC00000EBC00000E9C00000B0
:1000A000E7C00000E5C00000E3C00000E1C00000C0
:1000B000DFC00000DDC00000DBC00000D9C00000D0
:1000C000D7C00000D5C00000D3C00000D1C00000E0
:1000D000CFC00000CDC00000CBC00000C9C00000F0
:1000E000C7C000003404370426042A042E046E041A
:1000F0003B043F04450449044D04530457045B0486
:100100006E046104650469040000210024002700D6
:100110002A002D0030003300010100000401070116
:100120000A0100000A0B02090C0D0E080703040166
:1001300000000000000000000000000000000000BF
:10014000000000000000000000000000000012118C
:10015000100000000000000000000000000000008F
:10016000000000000000000001021020200808101C
:100170002040102040800201020108040201010217
:1001800004081020408080402010080402018004F0
:10019000020180402010080402010804020101024B
:1001A0000408102040800102040810204080000054
:1001B0002200250028002B002E003100340002010F
:1001C0000000050108010B010505050507050808E4
:1001D0000808020202020A0A0808040404040101D1
:1001E00001010101010103030303030303030407E6
:1001F00007070C0C0C0C0C0C0C0C0202020206067D
:100200000606060606060B0B0B0B0B0B0B0B8503EA
:10021000890711241FBECFEFD1E2DEBFCDBF00E0C2
:100220000CBF12E0A0E0B2E0E8E0F5E100E00BBFB7
:1002300002C007900D92A634B107D9F723E0A6E4D7
:10024000B2E001C01D92A934B207E1F711E0C8E0A5
:10025000D1E000E005C021970109802FFE0167D69B
:10026000C730D10780E00807B1F75BD30C94730A5D
:10027000C7CECF92DF92EF92FF920F931F93CF934F
:10028000DF936C017A018B01C0E0D0E0CE15DF0571
:1002900089F0D8016D918D01D601ED91FC9101900D
:1002A000F081E02DC6011995892B11F47E0102C061
:1002B0002196ECCFC701DF91CF911F910F91FF9055
:1002C000EF90DF90CF900895FC01918D828D98176B
:1002D00061F0828DDF01A80FB11D5D968C91928D2A
:1002E0009F5F9F73928F90E008958FEF9FEF089527
:1002F000FC01918D828D981731F0828DE80FF11DF0
:10030000858D90E008958FEF9FEF0895FC01918D0A
:10031000228D892F90E0805C9F4F821B91098F7303
:100320009927089583E992E0F1DF21E0892B09F410
:1003300020E0822F0895FC01848DDF01A80FB11DFC
:10034000A35ABF4F2C91848D90E001968F7399270B
:10035000848FA689B7892C93A089B1898C918064F8
:100360008C93938D848D981306C00288F389E02DB9
:1003700080818F7D80830895EF92FF920F931F936A
:10038000CF93DF93EC0181E0888F9B8D8C8D981348
:1003900005C0E889F989808185FD23C0F62E0B8D83
:1003A00010E00F5F1F4F0F731127E02E8C8DE812A6
:1003B0000BC00FB607FCFACFE889F989808185FF69
:1003C000F5CFCE01B8DFF2CF8B8DFE01E80FF11D26
:1003D000E35AFF4FF0820B8FEA89FB8980818062AC
:1003E00007C0EE89FF896083E889F989808180648C
:1003F000808381E090E0DF91CF911F910F91FF907A
:10040000EF900895CF93DF93EC01888D8823C1F09E
:10041000EA89FB89808185FD05C0A889B9898C910D
:1004200086FD0EC00FB607FCF5CF808185FFF2CFA9
:10043000A889B9898C9185FFEDCFCE017CDFE8CF0B
:10044000DF91CF91089580E090E0892B19F06ADF69
:10045000811125C080E090E0892B41F080E090E0A0
:10046000892B21F00E94000081111CC080E090E0E7
:10047000892B41F080E090E0892B21F00E94000060
:10048000811113C080E090E0892BA1F080E090E022
:10049000892B81F00E94000081110AC008950E94FA
:1004A0000000D8CF0E940000E1CF0E940000EACFF8
:1004B0000C9400000895CF93DF9390E0FC01E8597D
:1004C000FE4F2491FC01E853FE4F8491882361F193
:1004D00090E0880F991FFC01E85FFE4FC591D49111
:1004E000FC01E255FE4FA591B491611109C09FB77F
:1004F000F8948881209582238883EC912E230BC069
:10050000623061F49FB7F8943881822F80958323FD
:100510008883EC912E2B2C939FBF06C08FB7F89445
:10052000E8812E2B28838FBFDF91CF9108958633EA
:1005300008F0865390917B00282F2870977F922B8C
:1005400090937B008770806480937C0080917A0018
:10055000806480937A0080917A0086FDFCCF809140
:1005600078002091790090E0922B08953FB7F8949D
:100570008091470290914802A0914902B0914A02AD
:1005800026B5A89B05C02F3F19F00196A11DB11DEE
:100590003FBFBA2FA92F982F8827820F911DA11D29
:1005A000B11DBC01CD0142E0660F771F881F991F66
:1005B0004A95D1F7089593D71F920F920FB60F92D5
:1005C00011240BB60F922F933F934F935F936F932A
:1005D0007F938F939F93AF93BF93EF93FF9383E9A1
:1005E00092E0A9DEFF91EF91BF91AF919F918F9122
:1005F0007F916F915F914F913F912F910F900BBE23
:100600000F900FBE0F901F9018951F920F920FB66C
:100610000F9211240BB60F922F938F939F93EF930A
:10062000FF93E091A302F091A4028081E091A902DE
:10063000F091AA0282FD12C090818091AC028F5F7E
:100640008F732091AD02821751F0E091AC02F0E07F
:10065000ED56FD4F958F8093AC0201C08081FF91D4
:10066000EF919F918F912F910F900BBE0F900FBE26
:100670000F901F9018951F920F920FB60F92112492
:100680002F933F938F939F93AF93BF9380914B0290
:1006900090914C02A0914D02B0914E0230914602D1
:1006A00023E0230F2D3720F40196A11DB11D05C0B5
:1006B00026E8230F0296A11DB11D209346028093C8
:1006C0004B0290934C02A0934D02B0934E02809146
:1006D000470290914802A0914902B0914A020196C6
:1006E000A11DB11D8093470290934802A093490237
:1006F000B0934A02BF91AF919F918F913F912F91FB
:100700000F900FBE0F901F901895109296021092A6
:10071000950288EE93E0A0E0B0E08093970290937A
:100720009802A0939902B0939A028AE392E0909380
:1007300094028093930285EC90E09093A0028093C2
:100740009F0284EC90E09093A2028093A10280EC3F
:1007500090E09093A4028093A30281EC90E09093A8
:10076000A6028093A50282EC90E09093A802809369
:10077000A70286EC90E09093AA028093A9021092BF
:10078000AC021092AD021092AE021092AF02109223
:1007900031031092370310923E0310923F031092E0
:1007A00040031092410381E080933D0380933A031C
:1007B00010923B0392E090933C038093300380E3DC
:1007C00090E090933503809334035CD59093390384
:1007D00080933803009761F020E3FC0111922A9581
:1007E000E9F780E190E0909333038093320308C0EF
:1007F0001092350310923403109233031092320397
:1008000086E08093360380913103882309F475C014
:1008100061E086E050DEE8E2F1E04491EEE6F1E0EE
:100820002491EEECF1E09491992309F466C04423FD
:1008300009F454C050E0FA013197E231F10508F0B3
:100840004DC08827EE58FF4F8F4F71C380918000B5
:100850008F7707C0809180008F7D03C080918000DA
:10086000877F809380003AC084B58F7702C084B5BB
:100870008F7D84BD33C08091B0008F7703C080919D
:10088000B0008F7D8093B00029C0809190008F7759
:1008900007C0809190008F7D03C080919000877F7A
:1008A000809390001BC08091A0008F7707C080913B
:1008B000A0008F7D03C08091A000877F8093A0005F
:1008C0000DC0809120018F7707C0809120018F7D1E
:1008D00003C080912001877F80932001E92FF0E001
:1008E000EE0FFF1FE255FE4FA591B4918FB7F8941C
:1008F000EC9120952E232C938FBFEEECF1E0E49148
:10090000F0E0EE0FFF1FE255FE4F8591949190931A
:10091000430380934203EEE6F1E0E491E093440365
:100920000895CF93DF93CDB7DEB769970FB6F894EC
:10093000DEBF0FBECDBF789484B5826084BD84B520
:10094000816084BD85B5826085BD85B5816085BDCA
:1009500080916E00816080936E0010928100809182
:10096000810082608093810080918100816080930A
:100970008100809180008160809380008091B1002F
:1009800084608093B1008091B00081608093B0005A
:1009900080919100826080939100809191008160AC
:1009A000809391008091900081608093900080916D
:1009B000A10082608093A1008091A100816080935A
:1009C000A1008091A00081608093A000809121010E
:1009D00082608093210180912101816080932101B7
:1009E0008091200181608093200180917A00846051
:1009F00080937A0080917A00826080937A0080915F
:100A00007A00816080937A0080917A008068809378
:100A10007A001092C100E091A302F091A40282E05A
:100A20008083E0919F02F091A0021082E091A102E8
:100A3000F091A2028FEC80831092AB02E091A702AA
:100A4000F091A80286E08083E091A502F091A602D1
:100A5000808180618083E091A502F091A60280816F
:100A600088608083E091A502F091A6028081806871
:100A70008083E091A502F091A60280818F7D808322
:100A800003E712E05AE2E52E52E0F52EF701D0809E
:100A9000F2E0EF0EF11C60E08D2D0DDD8D2D47DDB8
:100AA000BC01990F880B990BD6D2F8016193719311
:100AB000819391938F01F2E00B381F0739F78FB7BD
:100AC000F89400914B0210914C0220914D0230910C
:100AD0004E028FBF00938B0210938C0220938D02E5
:100AE00030938E0210928F02109290021092910217
:100AF000109292022FB7F89480914B0290914C0281
:100B0000A0914D02B0914E022FBF1C012D019C01FE
:100B1000A20160E070E080E090E0A0908B02B090D5
:100B20008C02C0908D02D0908E02E0908F02F090E7
:100B30009002009191021091920211D2F22FE32FB4
:100B4000A0E016D21CF4FBD1F22FE32FFE8BEF8B2B
:100B500020928B0230928C0240928D0250928E0233
:100B600010928F02109290021092910210929202B3
:100B700037E6C32E32E0D32E2FE432E03D872C87B8
:100B80004BE5242E42E0342E46E052E05B8B4A8B4C
:100B900082E192E0998F888FE3E7F2E0FB87EA87B2
:100BA0002AE232E0398B288B1D8A1C8A1F861E861A
:100BB000E12CF12CE889F98980813296F98BE88B58
:100BC000B6DCBC01990F880B990B45D24B015C0137
:100BD00020E030E040E05FE3EA85FB8560817181E1
:100BE00082819381C8D22B013C0120E030E040E0BB
:100BF0005FE3C501B401BFD29B01AC01C301B201E7
:100C0000C4D12B013C01EA85FB856083718382831B
:100C10009383F601008111812E893F89021B130BFA
:100C200017FF02C000E010E0F60111830083A50168
:100C30009401C301B201A8D14B015C0120E030E076
:100C4000A90195D2181624F0B7FAB094B7F8B09469
:100C5000E88DF98D6191719181919191F98FE88F72
:100C6000A301920188D29B01AC01C501B4017FD2DE
:100C700097012F5F3F4F590118160CF058C0012BF8
:100C800009F05AC025E430E0F1013183208324E6E5
:100C900030E0F60131832083E0FC02C0C50102C0D0
:100CA000C7010197880F991FFC01E959FD4F44E6E0
:100CB00050E0518340838091320390913303E816D2
:100CC000F906D0F580913703882331F056E9859FE6
:100CD000C0011124292F01C026E930913D03409124
:100CE0003A038091380390913903341305C0EC899D
:100CF000FD898E0F9F1F08C04E855F85840F951F4D
:100D0000FC01E30FF11D108230913A03FC01E30F67
:100D1000F11D108230913B03FC01E30FF11D208394
:100D200020913C03FC01E20FF11D108205C0012B54
:100D300019F4F10111821082F10100811181EC8519
:100D4000FD85808191818017910799F0EA89FB895F
:100D5000F08060E983E992E00FDB6F2D83E992E098
:100D60000BDB602F83E992E007DBEC85FD851183C7
:100D7000008375012A853B852C5F3F4F3B872A877F
:100D80004E855F854C5F5F4F5F874E8752E0C50E93
:100D9000D11C8C859D8502969D878C8792E0290EBB
:100DA000311CEA89FB893296FB8BEA8B2C893D89C1
:100DB0002D5F3F4F3D8B2C8B36E0A316B10409F01D
:100DC000F9CE8091380390913903892B09F49FC0A3
:100DD000CDDB00913E0310913F0320914003309101
:100DE0004103DC01CB01801B910BA20BB30BC2971B
:100DF000A105B10568F3F89480913403909135030F
:100E00009A838983E0913803F0913903DF011196C9
:100E10008081898790913003E0914203F0914303F0
:100E200080914403992309F42EC09081982B9887D0
:100E30009081809589238F838F818C8388E08B8339
:100E400058856F8149853B812C8189819A815083A6
:100E500047FD252F3A952083262F39F0441F00C0E7
:100E600000006083000000C0F2CF38E04D91608345
:100E70000000019761F7F0934303E0934203498731
:100E80003B832C8338C09081982B988790818095E4
:100E900089238F838F818E8388E08D8358856F812E
:100EA00049853D812E8189819A81508347FD252F77
:100EB00000C000C0208300C000C000C000C000C04F
:100EC00060830000262F3A9541F0441F000000C0C7
:100ED00000C000C000C000C0E8CF38E04D9100C0A5
:100EE000608300C0019709F7F0934303E093420346
:100EF00049873D832E839A838983789437DB609377
:100F00003E0370933F0380934003909341039BDA29
:100F1000F1CD8091380390913903009709F047D2C1
:100F20008091360387FD02C060E0C5CA0895EE0FC8
:100F3000FF1F881F8BBF0790F691E02D19946095D5
:100F400070958095909530954095509521953F4F9F
:100F50004F4F5F4F6F4F7F4F8F4F9F4F08952A190D
:100F60003B094C095D096E097F09800B910B0895BF
:100F70000024A7FD00942A173005400550056005A0
:100F800070058005900508955058BB27AA270ED0FC
:100F9000B4C0A5D030F0AAD020F031F49F3F11F4B6
:100FA0001EF49AC00EF4E095E7FB90C0E92FB6D08E
:100FB00080F3BA17620773078407950718F071F476
:100FC0009EF5CEC00EF4E0950B2EBA2FA02D0B018E
:100FD000B90190010C01CA01A0011124FF27591B7E
:100FE00099F0593F50F4503E68F11A16F040A22F84
:100FF000232F342F4427585FF3CF469537952795F5
:10100000A795F0405395C9F77EF41F16BA0B620BF3
:10101000730B840BBAF09150A1F0FF0FBB1F661F3A
:10102000771F881FC2F70EC0BA0F621F731F841F7D
:1010300048F4879577956795B795F7959E3F08F0A3
:10104000B3CF9395880F08F09927EE0F9795879562
:101050000895E89409C097FB3EF4909580957095AB
:1010600061957F4F8F4F9F4F9923A9F0F92F96E9F4
:10107000BB279395F695879577956795B795F11169
:10108000F8CFFAF4BB0F11F460FF1BC06F5F7F4F06
:101090008F4F9F4F16C0882311F096E911C0772318
:1010A00021F09EE8872F762F05C0662371F096E821
:1010B000862F70E060E02AF09A95660F771F881FF0
:1010C000DAF7880F9695879597F9089597F99F67AE
:1010D00080E870E060E008959FEF80EC08950024C0
:1010E0000A941616170618060906089500240A948D
:1010F00012161306140605060895092E0394000C13
:1011000011F4882352F0BB0F40F4BF2B11F460FFA1
:1011100004C06F5F7F4F8F4F9F4F089557FD9058CA
:10112000440F551F59F05F3F71F04795880F97FBAB
:10113000991F61F09F3F79F0879508951216130665
:101140001406551FF2CF4695F1DF08C01616170694
:101150001806991FF1CF86957105610508940895C9
:10116000E894BB2766277727CB0197F9089566D0C7
:1011700008F48FEF08950BD0C0CFB1DF28F0B6DFB1
:1011800018F0952309F0A2CFA7CF1124EACFC6DF2C
:10119000A0F3959FD1F3950F50E0551F629FF0018A
:1011A000729FBB27F00DB11D639FAA27F00DB11DE3
:1011B000AA1F649F6627B00DA11D661F829F22276C
:1011C000B00DA11D621F739FB00DA11D621F839FF3
:1011D000A00D611D221F749F3327A00D611D231FC9
:1011E000849F600D211D822F762F6A2F11249F5717
:1011F00050408AF0E1F088234AF0EE0FFF1FBB1F3A
:10120000661F771F881F91505040A9F79E3F5105D8
:1012100070F05CCFA6CF5F3FECF3983EDCF3869591
:1012200077956795B795F795E7959F5FC1F7FE2B83
:10123000880F911D9695879597F90895990F000845
:10124000550FAA0BE0E8FEEF16161706E807F90798
:10125000C0F012161306E407F50798F0621B730B33
:10126000840B950B39F40A2661F0232B242B252BB4
:1012700021F408950A2609F4A140A6958FEF811D57
:10128000811D0895CF93DF938230910510F482E0A1
:1012900090E0E0914703F091480320E030E0C0E0A7
:1012A000D0E0309711F14081518148175907C0F0C3
:1012B0004817590761F482819381209719F09B8325
:1012C0008A832BC0909348038093470326C021153F
:1012D000310519F04217530718F49A01BE01DF01D6
:1012E000EF010280F381E02DDCCF2115310509F1FA
:1012F000281B390B2430310590F412968D919C9166
:1013000013976115710521F0FB019383828304C05B
:101310009093480380934703FD01329644C0FD013A
:10132000E20FF31F81939193225031092D933C9347
:101330003AC02091450330914603232B41F420917C
:10134000020230910302309346032093450320911B
:101350000002309101022115310541F42DB73EB74D
:101360004091040250910502241B350BE091450386
:10137000F0914603E217F307A0F42E1B3F0B28174A
:10138000390778F0AC014E5F5F4F2417350748F0FE
:101390004E0F5F1F509346034093450381939193F3
:1013A00002C0E0E0F0E0CF01DF91CF9108950F930C
:1013B0001F93CF93DF93009709F48CC0FC01329701
:1013C0001382128200914703109148030115110501
:1013D00081F420813181820F931F20914503309148
:1013E00046032817390779F5F0934603E093450340
:1013F00071C0D80140E050E0AE17BF0750F412961C
:101400002D913C911397AD012115310509F1D901B9
:10141000F3CF9D01DA013383228360817181860FCE
:10142000971F8217930769F4EC0128813981260FF1
:10143000371F2E5F3F4F318320838A819B819383A7
:101440008283452B29F4F0934803E093470342C07D
:101450001396FC93EE931297ED01499159919E01D9
:10146000240F351FE217F30771F480819181840FF7
:10147000951F029611969C938E9382819381139669
:101480009C938E931297E0E0F0E0D80112968D9134
:101490009C911397009719F0F8018C01F6CF8D916C
:1014A0009C9198012E5F3F4F820F931F209145031F
:1014B000309146032817390769F4309729F41092C0
:1014C00048031092470302C013821282109346030E
:1014D00000934503DF91CF911F910F91089581E013
:1014E00090E0F89400C011E0C8E0D1E000E005C051
:1014F000802FFE011CDD2196011DC930D10780E03F
:081500000807B1F7F894FFCFD2
:101508000000490380005A0055004A0045003A008F
:1015180035009A99193E9A99993E9A99193E9A993D
:10152800993E9A99193E9A99993E360037003800A3
:1015380039003A003B0000000000BC013901860177
:06154800640178010202BB
:00000001FF
